{
	"simplestorage.sol": {
		"SimpleStorage": {
			"abi": [
				{
					"anonymous": false,
					"inputs": [
						{
							"indexed": true,
							"internalType": "string",
							"name": "_title",
							"type": "string"
						},
						{
							"indexed": false,
							"internalType": "uint256",
							"name": "balance",
							"type": "uint256"
						},
						{
							"indexed": false,
							"internalType": "string",
							"name": "_deadline",
							"type": "string"
						},
						{
							"indexed": true,
							"internalType": "address",
							"name": "_ownerAddress",
							"type": "address"
						},
						{
							"indexed": false,
							"internalType": "bool",
							"name": "_isCompleted",
							"type": "bool"
						}
					],
					"name": "TaskCreated",
					"type": "event"
				},
				{
					"inputs": [
						{
							"internalType": "string",
							"name": "_title",
							"type": "string"
						},
						{
							"internalType": "string",
							"name": "_deadline",
							"type": "string"
						},
						{
							"internalType": "address",
							"name": "_ownerAddress",
							"type": "address"
						}
					],
					"name": "createTask",
					"outputs": [],
					"stateMutability": "nonpayable",
					"type": "function"
				},
				{
					"inputs": [
						{
							"internalType": "uint256",
							"name": "_index",
							"type": "uint256"
						}
					],
					"name": "get",
					"outputs": [
						{
							"internalType": "string",
							"name": "",
							"type": "string"
						},
						{
							"internalType": "uint256",
							"name": "",
							"type": "uint256"
						},
						{
							"internalType": "string",
							"name": "",
							"type": "string"
						},
						{
							"internalType": "address",
							"name": "",
							"type": "address"
						},
						{
							"internalType": "bool",
							"name": "",
							"type": "bool"
						}
					],
					"stateMutability": "view",
					"type": "function"
				},
				{
					"inputs": [
						{
							"internalType": "uint256",
							"name": "_index",
							"type": "uint256"
						}
					],
					"name": "updateTask",
					"outputs": [],
					"stateMutability": "nonpayable",
					"type": "function"
				},
				{
					"inputs": [
						{
							"internalType": "uint256",
							"name": "",
							"type": "uint256"
						}
					],
					"name": "users",
					"outputs": [
						{
							"internalType": "string",
							"name": "title",
							"type": "string"
						},
						{
							"internalType": "uint256",
							"name": "balance",
							"type": "uint256"
						},
						{
							"internalType": "string",
							"name": "deadline",
							"type": "string"
						},
						{
							"internalType": "address",
							"name": "ownerAddress",
							"type": "address"
						},
						{
							"internalType": "bool",
							"name": "isCompleted",
							"type": "bool"
						}
					],
					"stateMutability": "view",
					"type": "function"
				}
			],
			"devdoc": {
				"kind": "dev",
				"methods": {},
				"version": 1
			},
			"evm": {
				"assembly": "    /* \"simplestorage.sol\":59:1425  contract SimpleStorage {... */\n  mstore(0x40, 0x80)\n    /* \"simplestorage.sol\":128:138  msg.sender */\n  caller\n    /* \"simplestorage.sol\":112:138  address owner = msg.sender */\n  0x01\n  exp(0x0100, 0x00)\n  dup2\n  sload\n  dup2\n  0xffffffffffffffffffffffffffffffffffffffff\n  mul\n  not\n  and\n  swap1\n  dup4\n  0xffffffffffffffffffffffffffffffffffffffff\n  and\n  mul\n  or\n  swap1\n  sstore\n  pop\n    /* \"simplestorage.sol\":161:169  50 ether */\n  0x02b5e3af16b1880000\n    /* \"simplestorage.sol\":144:169  uint256 reward = 50 ether */\n  0x02\n  sstore\n    /* \"simplestorage.sol\":59:1425  contract SimpleStorage {... */\n  callvalue\n  dup1\n  iszero\n  tag_1\n  jumpi\n  0x00\n  dup1\n  revert\ntag_1:\n  pop\n  dataSize(sub_0)\n  dup1\n  dataOffset(sub_0)\n  0x00\n  codecopy\n  0x00\n  return\nstop\n\nsub_0: assembly {\n        /* \"simplestorage.sol\":59:1425  contract SimpleStorage {... */\n      mstore(0x40, 0x80)\n      callvalue\n      dup1\n      iszero\n      tag_1\n      jumpi\n      0x00\n      dup1\n      revert\n    tag_1:\n      pop\n      jumpi(tag_2, lt(calldatasize, 0x04))\n      shr(0xe0, calldataload(0x00))\n      dup1\n      0x30140291\n      eq\n      tag_3\n      jumpi\n      dup1\n      0x365b98b2\n      eq\n      tag_4\n      jumpi\n      dup1\n      0x475a8645\n      eq\n      tag_5\n      jumpi\n      dup1\n      0x9507d39a\n      eq\n      tag_6\n      jumpi\n    tag_2:\n      0x00\n      dup1\n      revert\n        /* \"simplestorage.sol\":973:1169  function updateTask(uint256 _index) public {... */\n    tag_3:\n      tag_7\n      0x04\n      dup1\n      calldatasize\n      sub\n      dup2\n      add\n      swap1\n      tag_8\n      swap2\n      swap1\n      tag_9\n      jump\t// in\n    tag_8:\n      tag_10\n      jump\t// in\n    tag_7:\n      stop\n        /* \"simplestorage.sol\":326:345  User[] public users */\n    tag_4:\n      tag_11\n      0x04\n      dup1\n      calldatasize\n      sub\n      dup2\n      add\n      swap1\n      tag_12\n      swap2\n      swap1\n      tag_9\n      jump\t// in\n    tag_12:\n      tag_13\n      jump\t// in\n    tag_11:\n      mload(0x40)\n      tag_14\n      swap6\n      swap5\n      swap4\n      swap3\n      swap2\n      swap1\n      tag_15\n      jump\t// in\n    tag_14:\n      mload(0x40)\n      dup1\n      swap2\n      sub\n      swap1\n      return\n        /* \"simplestorage.sol\":481:793  function createTask (string memory _title, string memory _deadline, address _ownerAddress) public {... */\n    tag_5:\n      tag_16\n      0x04\n      dup1\n      calldatasize\n      sub\n      dup2\n      add\n      swap1\n      tag_17\n      swap2\n      swap1\n      tag_18\n      jump\t// in\n    tag_17:\n      tag_19\n      jump\t// in\n    tag_16:\n      stop\n        /* \"simplestorage.sol\":1175:1423  function get(uint _index) public view returns (string memory, uint256, string memory, address, bool) {... */\n    tag_6:\n      tag_20\n      0x04\n      dup1\n      calldatasize\n      sub\n      dup2\n      add\n      swap1\n      tag_21\n      swap2\n      swap1\n      tag_9\n      jump\t// in\n    tag_21:\n      tag_22\n      jump\t// in\n    tag_20:\n      mload(0x40)\n      tag_23\n      swap6\n      swap5\n      swap4\n      swap3\n      swap2\n      swap1\n      tag_15\n      jump\t// in\n    tag_23:\n      mload(0x40)\n      dup1\n      swap2\n      sub\n      swap1\n      return\n        /* \"simplestorage.sol\":973:1169  function updateTask(uint256 _index) public {... */\n    tag_10:\n        /* \"simplestorage.sol\":1064:1074  msg.sender */\n      caller\n        /* \"simplestorage.sol\":1034:1074  users[_index].ownerAddress == msg.sender */\n      0xffffffffffffffffffffffffffffffffffffffff\n      and\n        /* \"simplestorage.sol\":1034:1039  users */\n      0x03\n        /* \"simplestorage.sol\":1040:1046  _index */\n      dup3\n        /* \"simplestorage.sol\":1034:1047  users[_index] */\n      dup2\n      sload\n      dup2\n      lt\n      tag_25\n      jumpi\n      tag_26\n      tag_27\n      jump\t// in\n    tag_26:\n    tag_25:\n      swap1\n      0x00\n      mstore\n      keccak256(0x00, 0x20)\n      swap1\n      0x04\n      mul\n      add\n        /* \"simplestorage.sol\":1034:1060  users[_index].ownerAddress */\n      0x03\n      add\n      0x00\n      swap1\n      sload\n      swap1\n      0x0100\n      exp\n      swap1\n      div\n      0xffffffffffffffffffffffffffffffffffffffff\n      and\n        /* \"simplestorage.sol\":1034:1074  users[_index].ownerAddress == msg.sender */\n      0xffffffffffffffffffffffffffffffffffffffff\n      and\n      eq\n        /* \"simplestorage.sol\":1026:1092  require(users[_index].ownerAddress == msg.sender, \"Not the owner\") */\n      tag_29\n      jumpi\n      mload(0x40)\n      0x08c379a000000000000000000000000000000000000000000000000000000000\n      dup2\n      mstore\n      0x04\n      add\n      tag_30\n      swap1\n      tag_31\n      jump\t// in\n    tag_30:\n      mload(0x40)\n      dup1\n      swap2\n      sub\n      swap1\n      revert\n    tag_29:\n        /* \"simplestorage.sol\":1130:1134  true */\n      0x01\n        /* \"simplestorage.sol\":1102:1107  users */\n      0x03\n        /* \"simplestorage.sol\":1108:1114  _index */\n      dup3\n        /* \"simplestorage.sol\":1102:1115  users[_index] */\n      dup2\n      sload\n      dup2\n      lt\n      tag_32\n      jumpi\n      tag_33\n      tag_27\n      jump\t// in\n    tag_33:\n    tag_32:\n      swap1\n      0x00\n      mstore\n      keccak256(0x00, 0x20)\n      swap1\n      0x04\n      mul\n      add\n        /* \"simplestorage.sol\":1102:1127  users[_index].isCompleted */\n      0x03\n      add\n      0x14\n        /* \"simplestorage.sol\":1102:1134  users[_index].isCompleted = true */\n      0x0100\n      exp\n      dup2\n      sload\n      dup2\n      0xff\n      mul\n      not\n      and\n      swap1\n      dup4\n      iszero\n      iszero\n      mul\n      or\n      swap1\n      sstore\n      pop\n        /* \"simplestorage.sol\":1144:1162  rewardUser(_index) */\n      tag_35\n        /* \"simplestorage.sol\":1155:1161  _index */\n      dup2\n        /* \"simplestorage.sol\":1144:1154  rewardUser */\n      tag_36\n        /* \"simplestorage.sol\":1144:1162  rewardUser(_index) */\n      jump\t// in\n    tag_35:\n        /* \"simplestorage.sol\":973:1169  function updateTask(uint256 _index) public {... */\n      pop\n      jump\t// out\n        /* \"simplestorage.sol\":326:345  User[] public users */\n    tag_13:\n      0x03\n      dup2\n      dup2\n      sload\n      dup2\n      lt\n      tag_37\n      jumpi\n      0x00\n      dup1\n      revert\n    tag_37:\n      swap1\n      0x00\n      mstore\n      keccak256(0x00, 0x20)\n      swap1\n      0x04\n      mul\n      add\n      0x00\n      swap2\n      pop\n      swap1\n      pop\n      dup1\n      0x00\n      add\n      dup1\n      sload\n      tag_39\n      swap1\n      tag_40\n      jump\t// in\n    tag_39:\n      dup1\n      0x1f\n      add\n      0x20\n      dup1\n      swap2\n      div\n      mul\n      0x20\n      add\n      mload(0x40)\n      swap1\n      dup2\n      add\n      0x40\n      mstore\n      dup1\n      swap3\n      swap2\n      swap1\n      dup2\n      dup2\n      mstore\n      0x20\n      add\n      dup3\n      dup1\n      sload\n      tag_41\n      swap1\n      tag_40\n      jump\t// in\n    tag_41:\n      dup1\n      iszero\n      tag_42\n      jumpi\n      dup1\n      0x1f\n      lt\n      tag_43\n      jumpi\n      0x0100\n      dup1\n      dup4\n      sload\n      div\n      mul\n      dup4\n      mstore\n      swap2\n      0x20\n      add\n      swap2\n      jump(tag_42)\n    tag_43:\n      dup3\n      add\n      swap2\n      swap1\n      0x00\n      mstore\n      keccak256(0x00, 0x20)\n      swap1\n    tag_44:\n      dup2\n      sload\n      dup2\n      mstore\n      swap1\n      0x01\n      add\n      swap1\n      0x20\n      add\n      dup1\n      dup4\n      gt\n      tag_44\n      jumpi\n      dup3\n      swap1\n      sub\n      0x1f\n      and\n      dup3\n      add\n      swap2\n    tag_42:\n      pop\n      pop\n      pop\n      pop\n      pop\n      swap1\n      dup1\n      0x01\n      add\n      sload\n      swap1\n      dup1\n      0x02\n      add\n      dup1\n      sload\n      tag_45\n      swap1\n      tag_40\n      jump\t// in\n    tag_45:\n      dup1\n      0x1f\n      add\n      0x20\n      dup1\n      swap2\n      div\n      mul\n      0x20\n      add\n      mload(0x40)\n      swap1\n      dup2\n      add\n      0x40\n      mstore\n      dup1\n      swap3\n      swap2\n      swap1\n      dup2\n      dup2\n      mstore\n      0x20\n      add\n      dup3\n      dup1\n      sload\n      tag_46\n      swap1\n      tag_40\n      jump\t// in\n    tag_46:\n      dup1\n      iszero\n      tag_47\n      jumpi\n      dup1\n      0x1f\n      lt\n      tag_48\n      jumpi\n      0x0100\n      dup1\n      dup4\n      sload\n      div\n      mul\n      dup4\n      mstore\n      swap2\n      0x20\n      add\n      swap2\n      jump(tag_47)\n    tag_48:\n      dup3\n      add\n      swap2\n      swap1\n      0x00\n      mstore\n      keccak256(0x00, 0x20)\n      swap1\n    tag_49:\n      dup2\n      sload\n      dup2\n      mstore\n      swap1\n      0x01\n      add\n      swap1\n      0x20\n      add\n      dup1\n      dup4\n      gt\n      tag_49\n      jumpi\n      dup3\n      swap1\n      sub\n      0x1f\n      and\n      dup3\n      add\n      swap2\n    tag_47:\n      pop\n      pop\n      pop\n      pop\n      pop\n      swap1\n      dup1\n      0x03\n      add\n      0x00\n      swap1\n      sload\n      swap1\n      0x0100\n      exp\n      swap1\n      div\n      0xffffffffffffffffffffffffffffffffffffffff\n      and\n      swap1\n      dup1\n      0x03\n      add\n      0x14\n      swap1\n      sload\n      swap1\n      0x0100\n      exp\n      swap1\n      div\n      0xff\n      and\n      swap1\n      pop\n      dup6\n      jump\t// out\n        /* \"simplestorage.sol\":481:793  function createTask (string memory _title, string memory _deadline, address _ownerAddress) public {... */\n    tag_19:\n        /* \"simplestorage.sol\":589:594  users */\n      0x03\n        /* \"simplestorage.sol\":600:709  User({title: _title, balance: 0 ether, deadline: _deadline, ownerAddress: _ownerAddress, isCompleted: false}) */\n      mload(0x40)\n      dup1\n      0xa0\n      add\n      0x40\n      mstore\n      dup1\n        /* \"simplestorage.sol\":613:619  _title */\n      dup6\n        /* \"simplestorage.sol\":600:709  User({title: _title, balance: 0 ether, deadline: _deadline, ownerAddress: _ownerAddress, isCompleted: false}) */\n      dup2\n      mstore\n      0x20\n      add\n        /* \"simplestorage.sol\":630:637  0 ether */\n      0x00\n        /* \"simplestorage.sol\":600:709  User({title: _title, balance: 0 ether, deadline: _deadline, ownerAddress: _ownerAddress, isCompleted: false}) */\n      dup2\n      mstore\n      0x20\n      add\n        /* \"simplestorage.sol\":649:658  _deadline */\n      dup5\n        /* \"simplestorage.sol\":600:709  User({title: _title, balance: 0 ether, deadline: _deadline, ownerAddress: _ownerAddress, isCompleted: false}) */\n      dup2\n      mstore\n      0x20\n      add\n        /* \"simplestorage.sol\":674:687  _ownerAddress */\n      dup4\n        /* \"simplestorage.sol\":600:709  User({title: _title, balance: 0 ether, deadline: _deadline, ownerAddress: _ownerAddress, isCompleted: false}) */\n      0xffffffffffffffffffffffffffffffffffffffff\n      and\n      dup2\n      mstore\n      0x20\n      add\n        /* \"simplestorage.sol\":702:707  false */\n      0x00\n        /* \"simplestorage.sol\":600:709  User({title: _title, balance: 0 ether, deadline: _deadline, ownerAddress: _ownerAddress, isCompleted: false}) */\n      iszero\n      iszero\n      dup2\n      mstore\n      pop\n        /* \"simplestorage.sol\":589:710  users.push(User({title: _title, balance: 0 ether, deadline: _deadline, ownerAddress: _ownerAddress, isCompleted: false})) */\n      swap1\n      dup1\n      0x01\n      dup2\n      sload\n      add\n      dup1\n      dup3\n      sstore\n      dup1\n      swap2\n      pop\n      pop\n      0x01\n      swap1\n      sub\n      swap1\n      0x00\n      mstore\n      keccak256(0x00, 0x20)\n      swap1\n      0x04\n      mul\n      add\n      0x00\n      swap1\n      swap2\n      swap1\n      swap2\n      swap1\n      swap2\n      pop\n      0x00\n      dup3\n      add\n      mload\n      dup2\n      0x00\n      add\n      swap1\n      dup2\n      tag_52\n      swap2\n      swap1\n      tag_53\n      jump\t// in\n    tag_52:\n      pop\n      0x20\n      dup3\n      add\n      mload\n      dup2\n      0x01\n      add\n      sstore\n      0x40\n      dup3\n      add\n      mload\n      dup2\n      0x02\n      add\n      swap1\n      dup2\n      tag_54\n      swap2\n      swap1\n      tag_53\n      jump\t// in\n    tag_54:\n      pop\n      0x60\n      dup3\n      add\n      mload\n      dup2\n      0x03\n      add\n      exp(0x0100, 0x00)\n      dup2\n      sload\n      dup2\n      0xffffffffffffffffffffffffffffffffffffffff\n      mul\n      not\n      and\n      swap1\n      dup4\n      0xffffffffffffffffffffffffffffffffffffffff\n      and\n      mul\n      or\n      swap1\n      sstore\n      pop\n      0x80\n      dup3\n      add\n      mload\n      dup2\n      0x03\n      add\n      exp(0x0100, 0x14)\n      dup2\n      sload\n      dup2\n      0xff\n      mul\n      not\n      and\n      swap1\n      dup4\n      iszero\n      iszero\n      mul\n      or\n      swap1\n      sstore\n      pop\n      pop\n      pop\n        /* \"simplestorage.sol\":765:778  _ownerAddress */\n      dup1\n        /* \"simplestorage.sol\":725:786  TaskCreated(_title, 0 ether, _deadline, _ownerAddress, false) */\n      0xffffffffffffffffffffffffffffffffffffffff\n      and\n        /* \"simplestorage.sol\":737:743  _title */\n      dup4\n        /* \"simplestorage.sol\":725:786  TaskCreated(_title, 0 ether, _deadline, _ownerAddress, false) */\n      mload(0x40)\n      tag_55\n      swap2\n      swap1\n      tag_56\n      jump\t// in\n    tag_55:\n      mload(0x40)\n      dup1\n      swap2\n      sub\n      swap1\n      keccak256\n      0x9c5bdbb360a97f0b832ebecf589239b6ff9d42380ffc8b4ebfeb81d5ebb4b406\n        /* \"simplestorage.sol\":745:752  0 ether */\n      0x00\n        /* \"simplestorage.sol\":754:763  _deadline */\n      dup6\n        /* \"simplestorage.sol\":780:785  false */\n      0x00\n        /* \"simplestorage.sol\":725:786  TaskCreated(_title, 0 ether, _deadline, _ownerAddress, false) */\n      mload(0x40)\n      tag_57\n      swap4\n      swap3\n      swap2\n      swap1\n      tag_58\n      jump\t// in\n    tag_57:\n      mload(0x40)\n      dup1\n      swap2\n      sub\n      swap1\n      log3\n        /* \"simplestorage.sol\":481:793  function createTask (string memory _title, string memory _deadline, address _ownerAddress) public {... */\n      pop\n      pop\n      pop\n      jump\t// out\n        /* \"simplestorage.sol\":1175:1423  function get(uint _index) public view returns (string memory, uint256, string memory, address, bool) {... */\n    tag_22:\n        /* \"simplestorage.sol\":1222:1235  string memory */\n      0x60\n        /* \"simplestorage.sol\":1237:1244  uint256 */\n      0x00\n        /* \"simplestorage.sol\":1246:1259  string memory */\n      0x60\n        /* \"simplestorage.sol\":1261:1268  address */\n      0x00\n        /* \"simplestorage.sol\":1270:1274  bool */\n      dup1\n        /* \"simplestorage.sol\":1294:1299  users */\n      0x03\n        /* \"simplestorage.sol\":1300:1306  _index */\n      dup7\n        /* \"simplestorage.sol\":1294:1307  users[_index] */\n      dup2\n      sload\n      dup2\n      lt\n      tag_60\n      jumpi\n      tag_61\n      tag_27\n      jump\t// in\n    tag_61:\n    tag_60:\n      swap1\n      0x00\n      mstore\n      keccak256(0x00, 0x20)\n      swap1\n      0x04\n      mul\n      add\n        /* \"simplestorage.sol\":1294:1313  users[_index].title */\n      0x00\n      add\n        /* \"simplestorage.sol\":1315:1320  users */\n      0x03\n        /* \"simplestorage.sol\":1321:1327  _index */\n      dup8\n        /* \"simplestorage.sol\":1315:1328  users[_index] */\n      dup2\n      sload\n      dup2\n      lt\n      tag_63\n      jumpi\n      tag_64\n      tag_27\n      jump\t// in\n    tag_64:\n    tag_63:\n      swap1\n      0x00\n      mstore\n      keccak256(0x00, 0x20)\n      swap1\n      0x04\n      mul\n      add\n        /* \"simplestorage.sol\":1315:1336  users[_index].balance */\n      0x01\n      add\n      sload\n        /* \"simplestorage.sol\":1338:1343  users */\n      0x03\n        /* \"simplestorage.sol\":1344:1350  _index */\n      dup9\n        /* \"simplestorage.sol\":1338:1351  users[_index] */\n      dup2\n      sload\n      dup2\n      lt\n      tag_66\n      jumpi\n      tag_67\n      tag_27\n      jump\t// in\n    tag_67:\n    tag_66:\n      swap1\n      0x00\n      mstore\n      keccak256(0x00, 0x20)\n      swap1\n      0x04\n      mul\n      add\n        /* \"simplestorage.sol\":1338:1360  users[_index].deadline */\n      0x02\n      add\n        /* \"simplestorage.sol\":1362:1367  users */\n      0x03\n        /* \"simplestorage.sol\":1368:1374  _index */\n      dup10\n        /* \"simplestorage.sol\":1362:1375  users[_index] */\n      dup2\n      sload\n      dup2\n      lt\n      tag_69\n      jumpi\n      tag_70\n      tag_27\n      jump\t// in\n    tag_70:\n    tag_69:\n      swap1\n      0x00\n      mstore\n      keccak256(0x00, 0x20)\n      swap1\n      0x04\n      mul\n      add\n        /* \"simplestorage.sol\":1362:1388  users[_index].ownerAddress */\n      0x03\n      add\n      0x00\n      swap1\n      sload\n      swap1\n      0x0100\n      exp\n      swap1\n      div\n      0xffffffffffffffffffffffffffffffffffffffff\n      and\n        /* \"simplestorage.sol\":1390:1395  users */\n      0x03\n        /* \"simplestorage.sol\":1396:1402  _index */\n      dup11\n        /* \"simplestorage.sol\":1390:1403  users[_index] */\n      dup2\n      sload\n      dup2\n      lt\n      tag_72\n      jumpi\n      tag_73\n      tag_27\n      jump\t// in\n    tag_73:\n    tag_72:\n      swap1\n      0x00\n      mstore\n      keccak256(0x00, 0x20)\n      swap1\n      0x04\n      mul\n      add\n        /* \"simplestorage.sol\":1390:1415  users[_index].isCompleted */\n      0x03\n      add\n      0x14\n      swap1\n      sload\n      swap1\n      0x0100\n      exp\n      swap1\n      div\n      0xff\n      and\n        /* \"simplestorage.sol\":1286:1416  return (users[_index].title, users[_index].balance, users[_index].deadline, users[_index].ownerAddress, users[_index].isCompleted) */\n      dup5\n      dup1\n      sload\n      tag_75\n      swap1\n      tag_40\n      jump\t// in\n    tag_75:\n      dup1\n      0x1f\n      add\n      0x20\n      dup1\n      swap2\n      div\n      mul\n      0x20\n      add\n      mload(0x40)\n      swap1\n      dup2\n      add\n      0x40\n      mstore\n      dup1\n      swap3\n      swap2\n      swap1\n      dup2\n      dup2\n      mstore\n      0x20\n      add\n      dup3\n      dup1\n      sload\n      tag_76\n      swap1\n      tag_40\n      jump\t// in\n    tag_76:\n      dup1\n      iszero\n      tag_77\n      jumpi\n      dup1\n      0x1f\n      lt\n      tag_78\n      jumpi\n      0x0100\n      dup1\n      dup4\n      sload\n      div\n      mul\n      dup4\n      mstore\n      swap2\n      0x20\n      add\n      swap2\n      jump(tag_77)\n    tag_78:\n      dup3\n      add\n      swap2\n      swap1\n      0x00\n      mstore\n      keccak256(0x00, 0x20)\n      swap1\n    tag_79:\n      dup2\n      sload\n      dup2\n      mstore\n      swap1\n      0x01\n      add\n      swap1\n      0x20\n      add\n      dup1\n      dup4\n      gt\n      tag_79\n      jumpi\n      dup3\n      swap1\n      sub\n      0x1f\n      and\n      dup3\n      add\n      swap2\n    tag_77:\n      pop\n      pop\n      pop\n      pop\n      pop\n      swap5\n      pop\n      dup3\n      dup1\n      sload\n      tag_80\n      swap1\n      tag_40\n      jump\t// in\n    tag_80:\n      dup1\n      0x1f\n      add\n      0x20\n      dup1\n      swap2\n      div\n      mul\n      0x20\n      add\n      mload(0x40)\n      swap1\n      dup2\n      add\n      0x40\n      mstore\n      dup1\n      swap3\n      swap2\n      swap1\n      dup2\n      dup2\n      mstore\n      0x20\n      add\n      dup3\n      dup1\n      sload\n      tag_81\n      swap1\n      tag_40\n      jump\t// in\n    tag_81:\n      dup1\n      iszero\n      tag_82\n      jumpi\n      dup1\n      0x1f\n      lt\n      tag_83\n      jumpi\n      0x0100\n      dup1\n      dup4\n      sload\n      div\n      mul\n      dup4\n      mstore\n      swap2\n      0x20\n      add\n      swap2\n      jump(tag_82)\n    tag_83:\n      dup3\n      add\n      swap2\n      swap1\n      0x00\n      mstore\n      keccak256(0x00, 0x20)\n      swap1\n    tag_84:\n      dup2\n      sload\n      dup2\n      mstore\n      swap1\n      0x01\n      add\n      swap1\n      0x20\n      add\n      dup1\n      dup4\n      gt\n      tag_84\n      jumpi\n      dup3\n      swap1\n      sub\n      0x1f\n      and\n      dup3\n      add\n      swap2\n    tag_82:\n      pop\n      pop\n      pop\n      pop\n      pop\n      swap3\n      pop\n      swap5\n      pop\n      swap5\n      pop\n      swap5\n      pop\n      swap5\n      pop\n      swap5\n      pop\n        /* \"simplestorage.sol\":1175:1423  function get(uint _index) public view returns (string memory, uint256, string memory, address, bool) {... */\n      swap2\n      swap4\n      swap6\n      swap1\n      swap3\n      swap5\n      pop\n      jump\t// out\n        /* \"simplestorage.sol\":799:967  function rewardUser (uint256 _index) internal {... */\n    tag_36:\n        /* \"simplestorage.sol\":892:896  true */\n      0x01\n        /* \"simplestorage.sol\":863:896  users[_index].isCompleted == true */\n      iszero\n      iszero\n        /* \"simplestorage.sol\":863:868  users */\n      0x03\n        /* \"simplestorage.sol\":869:875  _index */\n      dup3\n        /* \"simplestorage.sol\":863:876  users[_index] */\n      dup2\n      sload\n      dup2\n      lt\n      tag_86\n      jumpi\n      tag_87\n      tag_27\n      jump\t// in\n    tag_87:\n    tag_86:\n      swap1\n      0x00\n      mstore\n      keccak256(0x00, 0x20)\n      swap1\n      0x04\n      mul\n      add\n        /* \"simplestorage.sol\":863:888  users[_index].isCompleted */\n      0x03\n      add\n      0x14\n      swap1\n      sload\n      swap1\n      0x0100\n      exp\n      swap1\n      div\n      0xff\n      and\n        /* \"simplestorage.sol\":863:896  users[_index].isCompleted == true */\n      iszero\n      iszero\n      eq\n        /* \"simplestorage.sol\":855:919  require(users[_index].isCompleted == true, \"Complete your task\") */\n      tag_89\n      jumpi\n      mload(0x40)\n      0x08c379a000000000000000000000000000000000000000000000000000000000\n      dup2\n      mstore\n      0x04\n      add\n      tag_90\n      swap1\n      tag_91\n      jump\t// in\n    tag_90:\n      mload(0x40)\n      dup1\n      swap2\n      sub\n      swap1\n      revert\n    tag_89:\n        /* \"simplestorage.sol\":954:960  reward */\n      sload(0x02)\n        /* \"simplestorage.sol\":929:934  users */\n      0x03\n        /* \"simplestorage.sol\":935:941  _index */\n      dup3\n        /* \"simplestorage.sol\":929:942  users[_index] */\n      dup2\n      sload\n      dup2\n      lt\n      tag_92\n      jumpi\n      tag_93\n      tag_27\n      jump\t// in\n    tag_93:\n    tag_92:\n      swap1\n      0x00\n      mstore\n      keccak256(0x00, 0x20)\n      swap1\n      0x04\n      mul\n      add\n        /* \"simplestorage.sol\":929:950  users[_index].balance */\n      0x01\n      add\n      0x00\n        /* \"simplestorage.sol\":929:960  users[_index].balance += reward */\n      dup3\n      dup3\n      sload\n      tag_95\n      swap2\n      swap1\n      tag_96\n      jump\t// in\n    tag_95:\n      swap3\n      pop\n      pop\n      dup2\n      swap1\n      sstore\n      pop\n        /* \"simplestorage.sol\":799:967  function rewardUser (uint256 _index) internal {... */\n      pop\n      jump\t// out\n        /* \"#utility.yul\":7:82   */\n    tag_97:\n        /* \"#utility.yul\":40:46   */\n      0x00\n        /* \"#utility.yul\":73:75   */\n      0x40\n        /* \"#utility.yul\":67:76   */\n      mload\n        /* \"#utility.yul\":57:76   */\n      swap1\n      pop\n        /* \"#utility.yul\":7:82   */\n      swap1\n      jump\t// out\n        /* \"#utility.yul\":88:205   */\n    tag_98:\n        /* \"#utility.yul\":197:198   */\n      0x00\n        /* \"#utility.yul\":194:195   */\n      dup1\n        /* \"#utility.yul\":187:199   */\n      revert\n        /* \"#utility.yul\":211:328   */\n    tag_99:\n        /* \"#utility.yul\":320:321   */\n      0x00\n        /* \"#utility.yul\":317:318   */\n      dup1\n        /* \"#utility.yul\":310:322   */\n      revert\n        /* \"#utility.yul\":334:411   */\n    tag_100:\n        /* \"#utility.yul\":371:378   */\n      0x00\n        /* \"#utility.yul\":400:405   */\n      dup2\n        /* \"#utility.yul\":389:405   */\n      swap1\n      pop\n        /* \"#utility.yul\":334:411   */\n      swap2\n      swap1\n      pop\n      jump\t// out\n        /* \"#utility.yul\":417:539   */\n    tag_101:\n        /* \"#utility.yul\":490:514   */\n      tag_157\n        /* \"#utility.yul\":508:513   */\n      dup2\n        /* \"#utility.yul\":490:514   */\n      tag_100\n      jump\t// in\n    tag_157:\n        /* \"#utility.yul\":483:488   */\n      dup2\n        /* \"#utility.yul\":480:515   */\n      eq\n        /* \"#utility.yul\":470:533   */\n      tag_158\n      jumpi\n        /* \"#utility.yul\":529:530   */\n      0x00\n        /* \"#utility.yul\":526:527   */\n      dup1\n        /* \"#utility.yul\":519:531   */\n      revert\n        /* \"#utility.yul\":470:533   */\n    tag_158:\n        /* \"#utility.yul\":417:539   */\n      pop\n      jump\t// out\n        /* \"#utility.yul\":545:684   */\n    tag_102:\n        /* \"#utility.yul\":591:596   */\n      0x00\n        /* \"#utility.yul\":629:635   */\n      dup2\n        /* \"#utility.yul\":616:636   */\n      calldataload\n        /* \"#utility.yul\":607:636   */\n      swap1\n      pop\n        /* \"#utility.yul\":645:678   */\n      tag_160\n        /* \"#utility.yul\":672:677   */\n      dup2\n        /* \"#utility.yul\":645:678   */\n      tag_101\n      jump\t// in\n    tag_160:\n        /* \"#utility.yul\":545:684   */\n      swap3\n      swap2\n      pop\n      pop\n      jump\t// out\n        /* \"#utility.yul\":690:1019   */\n    tag_9:\n        /* \"#utility.yul\":749:755   */\n      0x00\n        /* \"#utility.yul\":798:800   */\n      0x20\n        /* \"#utility.yul\":786:795   */\n      dup3\n        /* \"#utility.yul\":777:784   */\n      dup5\n        /* \"#utility.yul\":773:796   */\n      sub\n        /* \"#utility.yul\":769:801   */\n      slt\n        /* \"#utility.yul\":766:885   */\n      iszero\n      tag_162\n      jumpi\n        /* \"#utility.yul\":804:883   */\n      tag_163\n      tag_98\n      jump\t// in\n    tag_163:\n        /* \"#utility.yul\":766:885   */\n    tag_162:\n        /* \"#utility.yul\":924:925   */\n      0x00\n        /* \"#utility.yul\":949:1002   */\n      tag_164\n        /* \"#utility.yul\":994:1001   */\n      dup5\n        /* \"#utility.yul\":985:991   */\n      dup3\n        /* \"#utility.yul\":974:983   */\n      dup6\n        /* \"#utility.yul\":970:992   */\n      add\n        /* \"#utility.yul\":949:1002   */\n      tag_102\n      jump\t// in\n    tag_164:\n        /* \"#utility.yul\":939:1002   */\n      swap2\n      pop\n        /* \"#utility.yul\":895:1012   */\n      pop\n        /* \"#utility.yul\":690:1019   */\n      swap3\n      swap2\n      pop\n      pop\n      jump\t// out\n        /* \"#utility.yul\":1025:1124   */\n    tag_103:\n        /* \"#utility.yul\":1077:1083   */\n      0x00\n        /* \"#utility.yul\":1111:1116   */\n      dup2\n        /* \"#utility.yul\":1105:1117   */\n      mload\n        /* \"#utility.yul\":1095:1117   */\n      swap1\n      pop\n        /* \"#utility.yul\":1025:1124   */\n      swap2\n      swap1\n      pop\n      jump\t// out\n        /* \"#utility.yul\":1130:1299   */\n    tag_104:\n        /* \"#utility.yul\":1214:1225   */\n      0x00\n        /* \"#utility.yul\":1248:1254   */\n      dup3\n        /* \"#utility.yul\":1243:1246   */\n      dup3\n        /* \"#utility.yul\":1236:1255   */\n      mstore\n        /* \"#utility.yul\":1288:1292   */\n      0x20\n        /* \"#utility.yul\":1283:1286   */\n      dup3\n        /* \"#utility.yul\":1279:1293   */\n      add\n        /* \"#utility.yul\":1264:1293   */\n      swap1\n      pop\n        /* \"#utility.yul\":1130:1299   */\n      swap3\n      swap2\n      pop\n      pop\n      jump\t// out\n        /* \"#utility.yul\":1305:1551   */\n    tag_105:\n        /* \"#utility.yul\":1386:1387   */\n      0x00\n        /* \"#utility.yul\":1396:1509   */\n    tag_168:\n        /* \"#utility.yul\":1410:1416   */\n      dup4\n        /* \"#utility.yul\":1407:1408   */\n      dup2\n        /* \"#utility.yul\":1404:1417   */\n      lt\n        /* \"#utility.yul\":1396:1509   */\n      iszero\n      tag_170\n      jumpi\n        /* \"#utility.yul\":1495:1496   */\n      dup1\n        /* \"#utility.yul\":1490:1493   */\n      dup3\n        /* \"#utility.yul\":1486:1497   */\n      add\n        /* \"#utility.yul\":1480:1498   */\n      mload\n        /* \"#utility.yul\":1476:1477   */\n      dup2\n        /* \"#utility.yul\":1471:1474   */\n      dup5\n        /* \"#utility.yul\":1467:1478   */\n      add\n        /* \"#utility.yul\":1460:1499   */\n      mstore\n        /* \"#utility.yul\":1432:1434   */\n      0x20\n        /* \"#utility.yul\":1429:1430   */\n      dup2\n        /* \"#utility.yul\":1425:1435   */\n      add\n        /* \"#utility.yul\":1420:1435   */\n      swap1\n      pop\n        /* \"#utility.yul\":1396:1509   */\n      jump(tag_168)\n    tag_170:\n        /* \"#utility.yul\":1543:1544   */\n      0x00\n        /* \"#utility.yul\":1534:1540   */\n      dup5\n        /* \"#utility.yul\":1529:1532   */\n      dup5\n        /* \"#utility.yul\":1525:1541   */\n      add\n        /* \"#utility.yul\":1518:1545   */\n      mstore\n        /* \"#utility.yul\":1367:1551   */\n      pop\n        /* \"#utility.yul\":1305:1551   */\n      pop\n      pop\n      pop\n      jump\t// out\n        /* \"#utility.yul\":1557:1659   */\n    tag_106:\n        /* \"#utility.yul\":1598:1604   */\n      0x00\n        /* \"#utility.yul\":1649:1651   */\n      0x1f\n        /* \"#utility.yul\":1645:1652   */\n      not\n        /* \"#utility.yul\":1640:1642   */\n      0x1f\n        /* \"#utility.yul\":1633:1638   */\n      dup4\n        /* \"#utility.yul\":1629:1643   */\n      add\n        /* \"#utility.yul\":1625:1653   */\n      and\n        /* \"#utility.yul\":1615:1653   */\n      swap1\n      pop\n        /* \"#utility.yul\":1557:1659   */\n      swap2\n      swap1\n      pop\n      jump\t// out\n        /* \"#utility.yul\":1665:2042   */\n    tag_107:\n        /* \"#utility.yul\":1753:1756   */\n      0x00\n        /* \"#utility.yul\":1781:1820   */\n      tag_173\n        /* \"#utility.yul\":1814:1819   */\n      dup3\n        /* \"#utility.yul\":1781:1820   */\n      tag_103\n      jump\t// in\n    tag_173:\n        /* \"#utility.yul\":1836:1907   */\n      tag_174\n        /* \"#utility.yul\":1900:1906   */\n      dup2\n        /* \"#utility.yul\":1895:1898   */\n      dup6\n        /* \"#utility.yul\":1836:1907   */\n      tag_104\n      jump\t// in\n    tag_174:\n        /* \"#utility.yul\":1829:1907   */\n      swap4\n      pop\n        /* \"#utility.yul\":1916:1981   */\n      tag_175\n        /* \"#utility.yul\":1974:1980   */\n      dup2\n        /* \"#utility.yul\":1969:1972   */\n      dup6\n        /* \"#utility.yul\":1962:1966   */\n      0x20\n        /* \"#utility.yul\":1955:1960   */\n      dup7\n        /* \"#utility.yul\":1951:1967   */\n      add\n        /* \"#utility.yul\":1916:1981   */\n      tag_105\n      jump\t// in\n    tag_175:\n        /* \"#utility.yul\":2006:2035   */\n      tag_176\n        /* \"#utility.yul\":2028:2034   */\n      dup2\n        /* \"#utility.yul\":2006:2035   */\n      tag_106\n      jump\t// in\n    tag_176:\n        /* \"#utility.yul\":2001:2004   */\n      dup5\n        /* \"#utility.yul\":1997:2036   */\n      add\n        /* \"#utility.yul\":1990:2036   */\n      swap2\n      pop\n        /* \"#utility.yul\":1757:2042   */\n      pop\n        /* \"#utility.yul\":1665:2042   */\n      swap3\n      swap2\n      pop\n      pop\n      jump\t// out\n        /* \"#utility.yul\":2048:2166   */\n    tag_108:\n        /* \"#utility.yul\":2135:2159   */\n      tag_178\n        /* \"#utility.yul\":2153:2158   */\n      dup2\n        /* \"#utility.yul\":2135:2159   */\n      tag_100\n      jump\t// in\n    tag_178:\n        /* \"#utility.yul\":2130:2133   */\n      dup3\n        /* \"#utility.yul\":2123:2160   */\n      mstore\n        /* \"#utility.yul\":2048:2166   */\n      pop\n      pop\n      jump\t// out\n        /* \"#utility.yul\":2172:2298   */\n    tag_109:\n        /* \"#utility.yul\":2209:2216   */\n      0x00\n        /* \"#utility.yul\":2249:2291   */\n      0xffffffffffffffffffffffffffffffffffffffff\n        /* \"#utility.yul\":2242:2247   */\n      dup3\n        /* \"#utility.yul\":2238:2292   */\n      and\n        /* \"#utility.yul\":2227:2292   */\n      swap1\n      pop\n        /* \"#utility.yul\":2172:2298   */\n      swap2\n      swap1\n      pop\n      jump\t// out\n        /* \"#utility.yul\":2304:2400   */\n    tag_110:\n        /* \"#utility.yul\":2341:2348   */\n      0x00\n        /* \"#utility.yul\":2370:2394   */\n      tag_181\n        /* \"#utility.yul\":2388:2393   */\n      dup3\n        /* \"#utility.yul\":2370:2394   */\n      tag_109\n      jump\t// in\n    tag_181:\n        /* \"#utility.yul\":2359:2394   */\n      swap1\n      pop\n        /* \"#utility.yul\":2304:2400   */\n      swap2\n      swap1\n      pop\n      jump\t// out\n        /* \"#utility.yul\":2406:2524   */\n    tag_111:\n        /* \"#utility.yul\":2493:2517   */\n      tag_183\n        /* \"#utility.yul\":2511:2516   */\n      dup2\n        /* \"#utility.yul\":2493:2517   */\n      tag_110\n      jump\t// in\n    tag_183:\n        /* \"#utility.yul\":2488:2491   */\n      dup3\n        /* \"#utility.yul\":2481:2518   */\n      mstore\n        /* \"#utility.yul\":2406:2524   */\n      pop\n      pop\n      jump\t// out\n        /* \"#utility.yul\":2530:2620   */\n    tag_112:\n        /* \"#utility.yul\":2564:2571   */\n      0x00\n        /* \"#utility.yul\":2607:2612   */\n      dup2\n        /* \"#utility.yul\":2600:2613   */\n      iszero\n        /* \"#utility.yul\":2593:2614   */\n      iszero\n        /* \"#utility.yul\":2582:2614   */\n      swap1\n      pop\n        /* \"#utility.yul\":2530:2620   */\n      swap2\n      swap1\n      pop\n      jump\t// out\n        /* \"#utility.yul\":2626:2735   */\n    tag_113:\n        /* \"#utility.yul\":2707:2728   */\n      tag_186\n        /* \"#utility.yul\":2722:2727   */\n      dup2\n        /* \"#utility.yul\":2707:2728   */\n      tag_112\n      jump\t// in\n    tag_186:\n        /* \"#utility.yul\":2702:2705   */\n      dup3\n        /* \"#utility.yul\":2695:2729   */\n      mstore\n        /* \"#utility.yul\":2626:2735   */\n      pop\n      pop\n      jump\t// out\n        /* \"#utility.yul\":2741:3575   */\n    tag_15:\n        /* \"#utility.yul\":2980:2984   */\n      0x00\n        /* \"#utility.yul\":3018:3021   */\n      0xa0\n        /* \"#utility.yul\":3007:3016   */\n      dup3\n        /* \"#utility.yul\":3003:3022   */\n      add\n        /* \"#utility.yul\":2995:3022   */\n      swap1\n      pop\n        /* \"#utility.yul\":3068:3077   */\n      dup2\n        /* \"#utility.yul\":3062:3066   */\n      dup2\n        /* \"#utility.yul\":3058:3078   */\n      sub\n        /* \"#utility.yul\":3054:3055   */\n      0x00\n        /* \"#utility.yul\":3043:3052   */\n      dup4\n        /* \"#utility.yul\":3039:3056   */\n      add\n        /* \"#utility.yul\":3032:3079   */\n      mstore\n        /* \"#utility.yul\":3096:3174   */\n      tag_188\n        /* \"#utility.yul\":3169:3173   */\n      dup2\n        /* \"#utility.yul\":3160:3166   */\n      dup9\n        /* \"#utility.yul\":3096:3174   */\n      tag_107\n      jump\t// in\n    tag_188:\n        /* \"#utility.yul\":3088:3174   */\n      swap1\n      pop\n        /* \"#utility.yul\":3184:3256   */\n      tag_189\n        /* \"#utility.yul\":3252:3254   */\n      0x20\n        /* \"#utility.yul\":3241:3250   */\n      dup4\n        /* \"#utility.yul\":3237:3255   */\n      add\n        /* \"#utility.yul\":3228:3234   */\n      dup8\n        /* \"#utility.yul\":3184:3256   */\n      tag_108\n      jump\t// in\n    tag_189:\n        /* \"#utility.yul\":3303:3312   */\n      dup2\n        /* \"#utility.yul\":3297:3301   */\n      dup2\n        /* \"#utility.yul\":3293:3313   */\n      sub\n        /* \"#utility.yul\":3288:3290   */\n      0x40\n        /* \"#utility.yul\":3277:3286   */\n      dup4\n        /* \"#utility.yul\":3273:3291   */\n      add\n        /* \"#utility.yul\":3266:3314   */\n      mstore\n        /* \"#utility.yul\":3331:3409   */\n      tag_190\n        /* \"#utility.yul\":3404:3408   */\n      dup2\n        /* \"#utility.yul\":3395:3401   */\n      dup7\n        /* \"#utility.yul\":3331:3409   */\n      tag_107\n      jump\t// in\n    tag_190:\n        /* \"#utility.yul\":3323:3409   */\n      swap1\n      pop\n        /* \"#utility.yul\":3419:3491   */\n      tag_191\n        /* \"#utility.yul\":3487:3489   */\n      0x60\n        /* \"#utility.yul\":3476:3485   */\n      dup4\n        /* \"#utility.yul\":3472:3490   */\n      add\n        /* \"#utility.yul\":3463:3469   */\n      dup6\n        /* \"#utility.yul\":3419:3491   */\n      tag_111\n      jump\t// in\n    tag_191:\n        /* \"#utility.yul\":3501:3568   */\n      tag_192\n        /* \"#utility.yul\":3563:3566   */\n      0x80\n        /* \"#utility.yul\":3552:3561   */\n      dup4\n        /* \"#utility.yul\":3548:3567   */\n      add\n        /* \"#utility.yul\":3539:3545   */\n      dup5\n        /* \"#utility.yul\":3501:3568   */\n      tag_113\n      jump\t// in\n    tag_192:\n        /* \"#utility.yul\":2741:3575   */\n      swap7\n      swap6\n      pop\n      pop\n      pop\n      pop\n      pop\n      pop\n      jump\t// out\n        /* \"#utility.yul\":3581:3698   */\n    tag_114:\n        /* \"#utility.yul\":3690:3691   */\n      0x00\n        /* \"#utility.yul\":3687:3688   */\n      dup1\n        /* \"#utility.yul\":3680:3692   */\n      revert\n        /* \"#utility.yul\":3704:3821   */\n    tag_115:\n        /* \"#utility.yul\":3813:3814   */\n      0x00\n        /* \"#utility.yul\":3810:3811   */\n      dup1\n        /* \"#utility.yul\":3803:3815   */\n      revert\n        /* \"#utility.yul\":3827:4007   */\n    tag_116:\n        /* \"#utility.yul\":3875:3952   */\n      0x4e487b7100000000000000000000000000000000000000000000000000000000\n        /* \"#utility.yul\":3872:3873   */\n      0x00\n        /* \"#utility.yul\":3865:3953   */\n      mstore\n        /* \"#utility.yul\":3972:3976   */\n      0x41\n        /* \"#utility.yul\":3969:3970   */\n      0x04\n        /* \"#utility.yul\":3962:3977   */\n      mstore\n        /* \"#utility.yul\":3996:4000   */\n      0x24\n        /* \"#utility.yul\":3993:3994   */\n      0x00\n        /* \"#utility.yul\":3986:4001   */\n      revert\n        /* \"#utility.yul\":4013:4294   */\n    tag_117:\n        /* \"#utility.yul\":4096:4123   */\n      tag_197\n        /* \"#utility.yul\":4118:4122   */\n      dup3\n        /* \"#utility.yul\":4096:4123   */\n      tag_106\n      jump\t// in\n    tag_197:\n        /* \"#utility.yul\":4088:4094   */\n      dup2\n        /* \"#utility.yul\":4084:4124   */\n      add\n        /* \"#utility.yul\":4226:4232   */\n      dup2\n        /* \"#utility.yul\":4214:4224   */\n      dup2\n        /* \"#utility.yul\":4211:4233   */\n      lt\n        /* \"#utility.yul\":4190:4208   */\n      0xffffffffffffffff\n        /* \"#utility.yul\":4178:4188   */\n      dup3\n        /* \"#utility.yul\":4175:4209   */\n      gt\n        /* \"#utility.yul\":4172:4234   */\n      or\n        /* \"#utility.yul\":4169:4257   */\n      iszero\n      tag_198\n      jumpi\n        /* \"#utility.yul\":4237:4255   */\n      tag_199\n      tag_116\n      jump\t// in\n    tag_199:\n        /* \"#utility.yul\":4169:4257   */\n    tag_198:\n        /* \"#utility.yul\":4277:4287   */\n      dup1\n        /* \"#utility.yul\":4273:4275   */\n      0x40\n        /* \"#utility.yul\":4266:4288   */\n      mstore\n        /* \"#utility.yul\":4056:4294   */\n      pop\n        /* \"#utility.yul\":4013:4294   */\n      pop\n      pop\n      jump\t// out\n        /* \"#utility.yul\":4300:4429   */\n    tag_118:\n        /* \"#utility.yul\":4334:4340   */\n      0x00\n        /* \"#utility.yul\":4361:4381   */\n      tag_201\n      tag_97\n      jump\t// in\n    tag_201:\n        /* \"#utility.yul\":4351:4381   */\n      swap1\n      pop\n        /* \"#utility.yul\":4390:4423   */\n      tag_202\n        /* \"#utility.yul\":4418:4422   */\n      dup3\n        /* \"#utility.yul\":4410:4416   */\n      dup3\n        /* \"#utility.yul\":4390:4423   */\n      tag_117\n      jump\t// in\n    tag_202:\n        /* \"#utility.yul\":4300:4429   */\n      swap2\n      swap1\n      pop\n      jump\t// out\n        /* \"#utility.yul\":4435:4743   */\n    tag_119:\n        /* \"#utility.yul\":4497:4501   */\n      0x00\n        /* \"#utility.yul\":4587:4605   */\n      0xffffffffffffffff\n        /* \"#utility.yul\":4579:4585   */\n      dup3\n        /* \"#utility.yul\":4576:4606   */\n      gt\n        /* \"#utility.yul\":4573:4629   */\n      iszero\n      tag_204\n      jumpi\n        /* \"#utility.yul\":4609:4627   */\n      tag_205\n      tag_116\n      jump\t// in\n    tag_205:\n        /* \"#utility.yul\":4573:4629   */\n    tag_204:\n        /* \"#utility.yul\":4647:4676   */\n      tag_206\n        /* \"#utility.yul\":4669:4675   */\n      dup3\n        /* \"#utility.yul\":4647:4676   */\n      tag_106\n      jump\t// in\n    tag_206:\n        /* \"#utility.yul\":4639:4676   */\n      swap1\n      pop\n        /* \"#utility.yul\":4731:4735   */\n      0x20\n        /* \"#utility.yul\":4725:4729   */\n      dup2\n        /* \"#utility.yul\":4721:4736   */\n      add\n        /* \"#utility.yul\":4713:4736   */\n      swap1\n      pop\n        /* \"#utility.yul\":4435:4743   */\n      swap2\n      swap1\n      pop\n      jump\t// out\n        /* \"#utility.yul\":4749:4895   */\n    tag_120:\n        /* \"#utility.yul\":4846:4852   */\n      dup3\n        /* \"#utility.yul\":4841:4844   */\n      dup2\n        /* \"#utility.yul\":4836:4839   */\n      dup4\n        /* \"#utility.yul\":4823:4853   */\n      calldatacopy\n        /* \"#utility.yul\":4887:4888   */\n      0x00\n        /* \"#utility.yul\":4878:4884   */\n      dup4\n        /* \"#utility.yul\":4873:4876   */\n      dup4\n        /* \"#utility.yul\":4869:4885   */\n      add\n        /* \"#utility.yul\":4862:4889   */\n      mstore\n        /* \"#utility.yul\":4749:4895   */\n      pop\n      pop\n      pop\n      jump\t// out\n        /* \"#utility.yul\":4901:5326   */\n    tag_121:\n        /* \"#utility.yul\":4979:4984   */\n      0x00\n        /* \"#utility.yul\":5004:5070   */\n      tag_209\n        /* \"#utility.yul\":5020:5069   */\n      tag_210\n        /* \"#utility.yul\":5062:5068   */\n      dup5\n        /* \"#utility.yul\":5020:5069   */\n      tag_119\n      jump\t// in\n    tag_210:\n        /* \"#utility.yul\":5004:5070   */\n      tag_118\n      jump\t// in\n    tag_209:\n        /* \"#utility.yul\":4995:5070   */\n      swap1\n      pop\n        /* \"#utility.yul\":5093:5099   */\n      dup3\n        /* \"#utility.yul\":5086:5091   */\n      dup2\n        /* \"#utility.yul\":5079:5100   */\n      mstore\n        /* \"#utility.yul\":5131:5135   */\n      0x20\n        /* \"#utility.yul\":5124:5129   */\n      dup2\n        /* \"#utility.yul\":5120:5136   */\n      add\n        /* \"#utility.yul\":5169:5172   */\n      dup5\n        /* \"#utility.yul\":5160:5166   */\n      dup5\n        /* \"#utility.yul\":5155:5158   */\n      dup5\n        /* \"#utility.yul\":5151:5167   */\n      add\n        /* \"#utility.yul\":5148:5173   */\n      gt\n        /* \"#utility.yul\":5145:5257   */\n      iszero\n      tag_211\n      jumpi\n        /* \"#utility.yul\":5176:5255   */\n      tag_212\n      tag_115\n      jump\t// in\n    tag_212:\n        /* \"#utility.yul\":5145:5257   */\n    tag_211:\n        /* \"#utility.yul\":5266:5320   */\n      tag_213\n        /* \"#utility.yul\":5313:5319   */\n      dup5\n        /* \"#utility.yul\":5308:5311   */\n      dup3\n        /* \"#utility.yul\":5303:5306   */\n      dup6\n        /* \"#utility.yul\":5266:5320   */\n      tag_120\n      jump\t// in\n    tag_213:\n        /* \"#utility.yul\":4985:5326   */\n      pop\n        /* \"#utility.yul\":4901:5326   */\n      swap4\n      swap3\n      pop\n      pop\n      pop\n      jump\t// out\n        /* \"#utility.yul\":5346:5686   */\n    tag_122:\n        /* \"#utility.yul\":5402:5407   */\n      0x00\n        /* \"#utility.yul\":5451:5454   */\n      dup3\n        /* \"#utility.yul\":5444:5448   */\n      0x1f\n        /* \"#utility.yul\":5436:5442   */\n      dup4\n        /* \"#utility.yul\":5432:5449   */\n      add\n        /* \"#utility.yul\":5428:5455   */\n      slt\n        /* \"#utility.yul\":5418:5540   */\n      tag_215\n      jumpi\n        /* \"#utility.yul\":5459:5538   */\n      tag_216\n      tag_114\n      jump\t// in\n    tag_216:\n        /* \"#utility.yul\":5418:5540   */\n    tag_215:\n        /* \"#utility.yul\":5576:5582   */\n      dup2\n        /* \"#utility.yul\":5563:5583   */\n      calldataload\n        /* \"#utility.yul\":5601:5680   */\n      tag_217\n        /* \"#utility.yul\":5676:5679   */\n      dup5\n        /* \"#utility.yul\":5668:5674   */\n      dup3\n        /* \"#utility.yul\":5661:5665   */\n      0x20\n        /* \"#utility.yul\":5653:5659   */\n      dup7\n        /* \"#utility.yul\":5649:5666   */\n      add\n        /* \"#utility.yul\":5601:5680   */\n      tag_121\n      jump\t// in\n    tag_217:\n        /* \"#utility.yul\":5592:5680   */\n      swap2\n      pop\n        /* \"#utility.yul\":5408:5686   */\n      pop\n        /* \"#utility.yul\":5346:5686   */\n      swap3\n      swap2\n      pop\n      pop\n      jump\t// out\n        /* \"#utility.yul\":5692:5814   */\n    tag_123:\n        /* \"#utility.yul\":5765:5789   */\n      tag_219\n        /* \"#utility.yul\":5783:5788   */\n      dup2\n        /* \"#utility.yul\":5765:5789   */\n      tag_110\n      jump\t// in\n    tag_219:\n        /* \"#utility.yul\":5758:5763   */\n      dup2\n        /* \"#utility.yul\":5755:5790   */\n      eq\n        /* \"#utility.yul\":5745:5808   */\n      tag_220\n      jumpi\n        /* \"#utility.yul\":5804:5805   */\n      0x00\n        /* \"#utility.yul\":5801:5802   */\n      dup1\n        /* \"#utility.yul\":5794:5806   */\n      revert\n        /* \"#utility.yul\":5745:5808   */\n    tag_220:\n        /* \"#utility.yul\":5692:5814   */\n      pop\n      jump\t// out\n        /* \"#utility.yul\":5820:5959   */\n    tag_124:\n        /* \"#utility.yul\":5866:5871   */\n      0x00\n        /* \"#utility.yul\":5904:5910   */\n      dup2\n        /* \"#utility.yul\":5891:5911   */\n      calldataload\n        /* \"#utility.yul\":5882:5911   */\n      swap1\n      pop\n        /* \"#utility.yul\":5920:5953   */\n      tag_222\n        /* \"#utility.yul\":5947:5952   */\n      dup2\n        /* \"#utility.yul\":5920:5953   */\n      tag_123\n      jump\t// in\n    tag_222:\n        /* \"#utility.yul\":5820:5959   */\n      swap3\n      swap2\n      pop\n      pop\n      jump\t// out\n        /* \"#utility.yul\":5965:6944   */\n    tag_18:\n        /* \"#utility.yul\":6062:6068   */\n      0x00\n        /* \"#utility.yul\":6070:6076   */\n      dup1\n        /* \"#utility.yul\":6078:6084   */\n      0x00\n        /* \"#utility.yul\":6127:6129   */\n      0x60\n        /* \"#utility.yul\":6115:6124   */\n      dup5\n        /* \"#utility.yul\":6106:6113   */\n      dup7\n        /* \"#utility.yul\":6102:6125   */\n      sub\n        /* \"#utility.yul\":6098:6130   */\n      slt\n        /* \"#utility.yul\":6095:6214   */\n      iszero\n      tag_224\n      jumpi\n        /* \"#utility.yul\":6133:6212   */\n      tag_225\n      tag_98\n      jump\t// in\n    tag_225:\n        /* \"#utility.yul\":6095:6214   */\n    tag_224:\n        /* \"#utility.yul\":6281:6282   */\n      0x00\n        /* \"#utility.yul\":6270:6279   */\n      dup5\n        /* \"#utility.yul\":6266:6283   */\n      add\n        /* \"#utility.yul\":6253:6284   */\n      calldataload\n        /* \"#utility.yul\":6311:6329   */\n      0xffffffffffffffff\n        /* \"#utility.yul\":6303:6309   */\n      dup2\n        /* \"#utility.yul\":6300:6330   */\n      gt\n        /* \"#utility.yul\":6297:6414   */\n      iszero\n      tag_226\n      jumpi\n        /* \"#utility.yul\":6333:6412   */\n      tag_227\n      tag_99\n      jump\t// in\n    tag_227:\n        /* \"#utility.yul\":6297:6414   */\n    tag_226:\n        /* \"#utility.yul\":6438:6501   */\n      tag_228\n        /* \"#utility.yul\":6493:6500   */\n      dup7\n        /* \"#utility.yul\":6484:6490   */\n      dup3\n        /* \"#utility.yul\":6473:6482   */\n      dup8\n        /* \"#utility.yul\":6469:6491   */\n      add\n        /* \"#utility.yul\":6438:6501   */\n      tag_122\n      jump\t// in\n    tag_228:\n        /* \"#utility.yul\":6428:6501   */\n      swap4\n      pop\n        /* \"#utility.yul\":6224:6511   */\n      pop\n        /* \"#utility.yul\":6578:6580   */\n      0x20\n        /* \"#utility.yul\":6567:6576   */\n      dup5\n        /* \"#utility.yul\":6563:6581   */\n      add\n        /* \"#utility.yul\":6550:6582   */\n      calldataload\n        /* \"#utility.yul\":6609:6627   */\n      0xffffffffffffffff\n        /* \"#utility.yul\":6601:6607   */\n      dup2\n        /* \"#utility.yul\":6598:6628   */\n      gt\n        /* \"#utility.yul\":6595:6712   */\n      iszero\n      tag_229\n      jumpi\n        /* \"#utility.yul\":6631:6710   */\n      tag_230\n      tag_99\n      jump\t// in\n    tag_230:\n        /* \"#utility.yul\":6595:6712   */\n    tag_229:\n        /* \"#utility.yul\":6736:6799   */\n      tag_231\n        /* \"#utility.yul\":6791:6798   */\n      dup7\n        /* \"#utility.yul\":6782:6788   */\n      dup3\n        /* \"#utility.yul\":6771:6780   */\n      dup8\n        /* \"#utility.yul\":6767:6789   */\n      add\n        /* \"#utility.yul\":6736:6799   */\n      tag_122\n      jump\t// in\n    tag_231:\n        /* \"#utility.yul\":6726:6799   */\n      swap3\n      pop\n        /* \"#utility.yul\":6521:6809   */\n      pop\n        /* \"#utility.yul\":6848:6850   */\n      0x40\n        /* \"#utility.yul\":6874:6927   */\n      tag_232\n        /* \"#utility.yul\":6919:6926   */\n      dup7\n        /* \"#utility.yul\":6910:6916   */\n      dup3\n        /* \"#utility.yul\":6899:6908   */\n      dup8\n        /* \"#utility.yul\":6895:6917   */\n      add\n        /* \"#utility.yul\":6874:6927   */\n      tag_124\n      jump\t// in\n    tag_232:\n        /* \"#utility.yul\":6864:6927   */\n      swap2\n      pop\n        /* \"#utility.yul\":6819:6937   */\n      pop\n        /* \"#utility.yul\":5965:6944   */\n      swap3\n      pop\n      swap3\n      pop\n      swap3\n      jump\t// out\n        /* \"#utility.yul\":6950:7130   */\n    tag_27:\n        /* \"#utility.yul\":6998:7075   */\n      0x4e487b7100000000000000000000000000000000000000000000000000000000\n        /* \"#utility.yul\":6995:6996   */\n      0x00\n        /* \"#utility.yul\":6988:7076   */\n      mstore\n        /* \"#utility.yul\":7095:7099   */\n      0x32\n        /* \"#utility.yul\":7092:7093   */\n      0x04\n        /* \"#utility.yul\":7085:7100   */\n      mstore\n        /* \"#utility.yul\":7119:7123   */\n      0x24\n        /* \"#utility.yul\":7116:7117   */\n      0x00\n        /* \"#utility.yul\":7109:7124   */\n      revert\n        /* \"#utility.yul\":7136:7299   */\n    tag_125:\n        /* \"#utility.yul\":7276:7291   */\n      0x4e6f7420746865206f776e657200000000000000000000000000000000000000\n        /* \"#utility.yul\":7272:7273   */\n      0x00\n        /* \"#utility.yul\":7264:7270   */\n      dup3\n        /* \"#utility.yul\":7260:7274   */\n      add\n        /* \"#utility.yul\":7253:7292   */\n      mstore\n        /* \"#utility.yul\":7136:7299   */\n      pop\n      jump\t// out\n        /* \"#utility.yul\":7305:7671   */\n    tag_126:\n        /* \"#utility.yul\":7447:7450   */\n      0x00\n        /* \"#utility.yul\":7468:7535   */\n      tag_236\n        /* \"#utility.yul\":7532:7534   */\n      0x0d\n        /* \"#utility.yul\":7527:7530   */\n      dup4\n        /* \"#utility.yul\":7468:7535   */\n      tag_104\n      jump\t// in\n    tag_236:\n        /* \"#utility.yul\":7461:7535   */\n      swap2\n      pop\n        /* \"#utility.yul\":7544:7637   */\n      tag_237\n        /* \"#utility.yul\":7633:7636   */\n      dup3\n        /* \"#utility.yul\":7544:7637   */\n      tag_125\n      jump\t// in\n    tag_237:\n        /* \"#utility.yul\":7662:7664   */\n      0x20\n        /* \"#utility.yul\":7657:7660   */\n      dup3\n        /* \"#utility.yul\":7653:7665   */\n      add\n        /* \"#utility.yul\":7646:7665   */\n      swap1\n      pop\n        /* \"#utility.yul\":7305:7671   */\n      swap2\n      swap1\n      pop\n      jump\t// out\n        /* \"#utility.yul\":7677:8096   */\n    tag_31:\n        /* \"#utility.yul\":7843:7847   */\n      0x00\n        /* \"#utility.yul\":7881:7883   */\n      0x20\n        /* \"#utility.yul\":7870:7879   */\n      dup3\n        /* \"#utility.yul\":7866:7884   */\n      add\n        /* \"#utility.yul\":7858:7884   */\n      swap1\n      pop\n        /* \"#utility.yul\":7930:7939   */\n      dup2\n        /* \"#utility.yul\":7924:7928   */\n      dup2\n        /* \"#utility.yul\":7920:7940   */\n      sub\n        /* \"#utility.yul\":7916:7917   */\n      0x00\n        /* \"#utility.yul\":7905:7914   */\n      dup4\n        /* \"#utility.yul\":7901:7918   */\n      add\n        /* \"#utility.yul\":7894:7941   */\n      mstore\n        /* \"#utility.yul\":7958:8089   */\n      tag_239\n        /* \"#utility.yul\":8084:8088   */\n      dup2\n        /* \"#utility.yul\":7958:8089   */\n      tag_126\n      jump\t// in\n    tag_239:\n        /* \"#utility.yul\":7950:8089   */\n      swap1\n      pop\n        /* \"#utility.yul\":7677:8096   */\n      swap2\n      swap1\n      pop\n      jump\t// out\n        /* \"#utility.yul\":8102:8282   */\n    tag_127:\n        /* \"#utility.yul\":8150:8227   */\n      0x4e487b7100000000000000000000000000000000000000000000000000000000\n        /* \"#utility.yul\":8147:8148   */\n      0x00\n        /* \"#utility.yul\":8140:8228   */\n      mstore\n        /* \"#utility.yul\":8247:8251   */\n      0x22\n        /* \"#utility.yul\":8244:8245   */\n      0x04\n        /* \"#utility.yul\":8237:8252   */\n      mstore\n        /* \"#utility.yul\":8271:8275   */\n      0x24\n        /* \"#utility.yul\":8268:8269   */\n      0x00\n        /* \"#utility.yul\":8261:8276   */\n      revert\n        /* \"#utility.yul\":8288:8608   */\n    tag_40:\n        /* \"#utility.yul\":8332:8338   */\n      0x00\n        /* \"#utility.yul\":8369:8370   */\n      0x02\n        /* \"#utility.yul\":8363:8367   */\n      dup3\n        /* \"#utility.yul\":8359:8371   */\n      div\n        /* \"#utility.yul\":8349:8371   */\n      swap1\n      pop\n        /* \"#utility.yul\":8416:8417   */\n      0x01\n        /* \"#utility.yul\":8410:8414   */\n      dup3\n        /* \"#utility.yul\":8406:8418   */\n      and\n        /* \"#utility.yul\":8437:8455   */\n      dup1\n        /* \"#utility.yul\":8427:8508   */\n      tag_242\n      jumpi\n        /* \"#utility.yul\":8493:8497   */\n      0x7f\n        /* \"#utility.yul\":8485:8491   */\n      dup3\n        /* \"#utility.yul\":8481:8498   */\n      and\n        /* \"#utility.yul\":8471:8498   */\n      swap2\n      pop\n        /* \"#utility.yul\":8427:8508   */\n    tag_242:\n        /* \"#utility.yul\":8555:8557   */\n      0x20\n        /* \"#utility.yul\":8547:8553   */\n      dup3\n        /* \"#utility.yul\":8544:8558   */\n      lt\n        /* \"#utility.yul\":8524:8542   */\n      dup2\n        /* \"#utility.yul\":8521:8559   */\n      sub\n        /* \"#utility.yul\":8518:8602   */\n      tag_243\n      jumpi\n        /* \"#utility.yul\":8574:8592   */\n      tag_244\n      tag_127\n      jump\t// in\n    tag_244:\n        /* \"#utility.yul\":8518:8602   */\n    tag_243:\n        /* \"#utility.yul\":8339:8608   */\n      pop\n        /* \"#utility.yul\":8288:8608   */\n      swap2\n      swap1\n      pop\n      jump\t// out\n        /* \"#utility.yul\":8614:8755   */\n    tag_128:\n        /* \"#utility.yul\":8663:8667   */\n      0x00\n        /* \"#utility.yul\":8686:8689   */\n      dup2\n        /* \"#utility.yul\":8678:8689   */\n      swap1\n      pop\n        /* \"#utility.yul\":8709:8712   */\n      dup2\n        /* \"#utility.yul\":8706:8707   */\n      0x00\n        /* \"#utility.yul\":8699:8713   */\n      mstore\n        /* \"#utility.yul\":8743:8747   */\n      0x20\n        /* \"#utility.yul\":8740:8741   */\n      0x00\n        /* \"#utility.yul\":8730:8748   */\n      keccak256\n        /* \"#utility.yul\":8722:8748   */\n      swap1\n      pop\n        /* \"#utility.yul\":8614:8755   */\n      swap2\n      swap1\n      pop\n      jump\t// out\n        /* \"#utility.yul\":8761:8854   */\n    tag_129:\n        /* \"#utility.yul\":8798:8804   */\n      0x00\n        /* \"#utility.yul\":8845:8847   */\n      0x20\n        /* \"#utility.yul\":8840:8842   */\n      0x1f\n        /* \"#utility.yul\":8833:8838   */\n      dup4\n        /* \"#utility.yul\":8829:8843   */\n      add\n        /* \"#utility.yul\":8825:8848   */\n      div\n        /* \"#utility.yul\":8815:8848   */\n      swap1\n      pop\n        /* \"#utility.yul\":8761:8854   */\n      swap2\n      swap1\n      pop\n      jump\t// out\n        /* \"#utility.yul\":8860:8967   */\n    tag_130:\n        /* \"#utility.yul\":8904:8912   */\n      0x00\n        /* \"#utility.yul\":8954:8959   */\n      dup3\n        /* \"#utility.yul\":8948:8952   */\n      dup3\n        /* \"#utility.yul\":8944:8960   */\n      shl\n        /* \"#utility.yul\":8923:8960   */\n      swap1\n      pop\n        /* \"#utility.yul\":8860:8967   */\n      swap3\n      swap2\n      pop\n      pop\n      jump\t// out\n        /* \"#utility.yul\":8973:9366   */\n    tag_131:\n        /* \"#utility.yul\":9042:9048   */\n      0x00\n        /* \"#utility.yul\":9092:9093   */\n      0x08\n        /* \"#utility.yul\":9080:9090   */\n      dup4\n        /* \"#utility.yul\":9076:9094   */\n      mul\n        /* \"#utility.yul\":9115:9212   */\n      tag_249\n        /* \"#utility.yul\":9145:9211   */\n      0xffffffffffffffffffffffffffffffffffffffffffffffffffffffffffffffff\n        /* \"#utility.yul\":9134:9143   */\n      dup3\n        /* \"#utility.yul\":9115:9212   */\n      tag_130\n      jump\t// in\n    tag_249:\n        /* \"#utility.yul\":9233:9272   */\n      tag_250\n        /* \"#utility.yul\":9263:9271   */\n      dup7\n        /* \"#utility.yul\":9252:9261   */\n      dup4\n        /* \"#utility.yul\":9233:9272   */\n      tag_130\n      jump\t// in\n    tag_250:\n        /* \"#utility.yul\":9221:9272   */\n      swap6\n      pop\n        /* \"#utility.yul\":9305:9309   */\n      dup1\n        /* \"#utility.yul\":9301:9310   */\n      not\n        /* \"#utility.yul\":9294:9299   */\n      dup5\n        /* \"#utility.yul\":9290:9311   */\n      and\n        /* \"#utility.yul\":9281:9311   */\n      swap4\n      pop\n        /* \"#utility.yul\":9354:9358   */\n      dup1\n        /* \"#utility.yul\":9344:9352   */\n      dup7\n        /* \"#utility.yul\":9340:9359   */\n      and\n        /* \"#utility.yul\":9333:9338   */\n      dup5\n        /* \"#utility.yul\":9330:9360   */\n      or\n        /* \"#utility.yul\":9320:9360   */\n      swap3\n      pop\n        /* \"#utility.yul\":9049:9366   */\n      pop\n      pop\n        /* \"#utility.yul\":8973:9366   */\n      swap4\n      swap3\n      pop\n      pop\n      pop\n      jump\t// out\n        /* \"#utility.yul\":9372:9432   */\n    tag_132:\n        /* \"#utility.yul\":9400:9403   */\n      0x00\n        /* \"#utility.yul\":9421:9426   */\n      dup2\n        /* \"#utility.yul\":9414:9426   */\n      swap1\n      pop\n        /* \"#utility.yul\":9372:9432   */\n      swap2\n      swap1\n      pop\n      jump\t// out\n        /* \"#utility.yul\":9438:9580   */\n    tag_133:\n        /* \"#utility.yul\":9488:9497   */\n      0x00\n        /* \"#utility.yul\":9521:9574   */\n      tag_253\n        /* \"#utility.yul\":9539:9573   */\n      tag_254\n        /* \"#utility.yul\":9548:9572   */\n      tag_255\n        /* \"#utility.yul\":9566:9571   */\n      dup5\n        /* \"#utility.yul\":9548:9572   */\n      tag_100\n      jump\t// in\n    tag_255:\n        /* \"#utility.yul\":9539:9573   */\n      tag_132\n      jump\t// in\n    tag_254:\n        /* \"#utility.yul\":9521:9574   */\n      tag_100\n      jump\t// in\n    tag_253:\n        /* \"#utility.yul\":9508:9574   */\n      swap1\n      pop\n        /* \"#utility.yul\":9438:9580   */\n      swap2\n      swap1\n      pop\n      jump\t// out\n        /* \"#utility.yul\":9586:9661   */\n    tag_134:\n        /* \"#utility.yul\":9629:9632   */\n      0x00\n        /* \"#utility.yul\":9650:9655   */\n      dup2\n        /* \"#utility.yul\":9643:9655   */\n      swap1\n      pop\n        /* \"#utility.yul\":9586:9661   */\n      swap2\n      swap1\n      pop\n      jump\t// out\n        /* \"#utility.yul\":9667:9936   */\n    tag_135:\n        /* \"#utility.yul\":9777:9816   */\n      tag_258\n        /* \"#utility.yul\":9808:9815   */\n      dup4\n        /* \"#utility.yul\":9777:9816   */\n      tag_133\n      jump\t// in\n    tag_258:\n        /* \"#utility.yul\":9838:9929   */\n      tag_259\n        /* \"#utility.yul\":9887:9928   */\n      tag_260\n        /* \"#utility.yul\":9911:9927   */\n      dup3\n        /* \"#utility.yul\":9887:9928   */\n      tag_134\n      jump\t// in\n    tag_260:\n        /* \"#utility.yul\":9879:9885   */\n      dup5\n        /* \"#utility.yul\":9872:9876   */\n      dup5\n        /* \"#utility.yul\":9866:9877   */\n      sload\n        /* \"#utility.yul\":9838:9929   */\n      tag_131\n      jump\t// in\n    tag_259:\n        /* \"#utility.yul\":9832:9836   */\n      dup3\n        /* \"#utility.yul\":9825:9930   */\n      sstore\n        /* \"#utility.yul\":9743:9936   */\n      pop\n        /* \"#utility.yul\":9667:9936   */\n      pop\n      pop\n      pop\n      jump\t// out\n        /* \"#utility.yul\":9942:10015   */\n    tag_136:\n        /* \"#utility.yul\":9987:9990   */\n      0x00\n        /* \"#utility.yul\":9942:10015   */\n      swap1\n      jump\t// out\n        /* \"#utility.yul\":10021:10210   */\n    tag_137:\n        /* \"#utility.yul\":10098:10130   */\n      tag_263\n      tag_136\n      jump\t// in\n    tag_263:\n        /* \"#utility.yul\":10139:10204   */\n      tag_264\n        /* \"#utility.yul\":10197:10203   */\n      dup2\n        /* \"#utility.yul\":10189:10195   */\n      dup5\n        /* \"#utility.yul\":10183:10187   */\n      dup5\n        /* \"#utility.yul\":10139:10204   */\n      tag_135\n      jump\t// in\n    tag_264:\n        /* \"#utility.yul\":10074:10210   */\n      pop\n        /* \"#utility.yul\":10021:10210   */\n      pop\n      pop\n      jump\t// out\n        /* \"#utility.yul\":10216:10402   */\n    tag_138:\n        /* \"#utility.yul\":10276:10396   */\n    tag_266:\n        /* \"#utility.yul\":10293:10296   */\n      dup2\n        /* \"#utility.yul\":10286:10291   */\n      dup2\n        /* \"#utility.yul\":10283:10297   */\n      lt\n        /* \"#utility.yul\":10276:10396   */\n      iszero\n      tag_268\n      jumpi\n        /* \"#utility.yul\":10347:10386   */\n      tag_269\n        /* \"#utility.yul\":10384:10385   */\n      0x00\n        /* \"#utility.yul\":10377:10382   */\n      dup3\n        /* \"#utility.yul\":10347:10386   */\n      tag_137\n      jump\t// in\n    tag_269:\n        /* \"#utility.yul\":10320:10321   */\n      0x01\n        /* \"#utility.yul\":10313:10318   */\n      dup2\n        /* \"#utility.yul\":10309:10322   */\n      add\n        /* \"#utility.yul\":10300:10322   */\n      swap1\n      pop\n        /* \"#utility.yul\":10276:10396   */\n      jump(tag_266)\n    tag_268:\n        /* \"#utility.yul\":10216:10402   */\n      pop\n      pop\n      jump\t// out\n        /* \"#utility.yul\":10408:10951   */\n    tag_139:\n        /* \"#utility.yul\":10509:10511   */\n      0x1f\n        /* \"#utility.yul\":10504:10507   */\n      dup3\n        /* \"#utility.yul\":10501:10512   */\n      gt\n        /* \"#utility.yul\":10498:10944   */\n      iszero\n      tag_271\n      jumpi\n        /* \"#utility.yul\":10543:10581   */\n      tag_272\n        /* \"#utility.yul\":10575:10580   */\n      dup2\n        /* \"#utility.yul\":10543:10581   */\n      tag_128\n      jump\t// in\n    tag_272:\n        /* \"#utility.yul\":10627:10656   */\n      tag_273\n        /* \"#utility.yul\":10645:10655   */\n      dup5\n        /* \"#utility.yul\":10627:10656   */\n      tag_129\n      jump\t// in\n    tag_273:\n        /* \"#utility.yul\":10617:10625   */\n      dup2\n        /* \"#utility.yul\":10613:10657   */\n      add\n        /* \"#utility.yul\":10810:10812   */\n      0x20\n        /* \"#utility.yul\":10798:10808   */\n      dup6\n        /* \"#utility.yul\":10795:10813   */\n      lt\n        /* \"#utility.yul\":10792:10841   */\n      iszero\n      tag_274\n      jumpi\n        /* \"#utility.yul\":10831:10839   */\n      dup2\n        /* \"#utility.yul\":10816:10839   */\n      swap1\n      pop\n        /* \"#utility.yul\":10792:10841   */\n    tag_274:\n        /* \"#utility.yul\":10854:10934   */\n      tag_275\n        /* \"#utility.yul\":10910:10932   */\n      tag_276\n        /* \"#utility.yul\":10928:10931   */\n      dup6\n        /* \"#utility.yul\":10910:10932   */\n      tag_129\n      jump\t// in\n    tag_276:\n        /* \"#utility.yul\":10900:10908   */\n      dup4\n        /* \"#utility.yul\":10896:10933   */\n      add\n        /* \"#utility.yul\":10883:10894   */\n      dup3\n        /* \"#utility.yul\":10854:10934   */\n      tag_138\n      jump\t// in\n    tag_275:\n        /* \"#utility.yul\":10513:10944   */\n      pop\n      pop\n        /* \"#utility.yul\":10498:10944   */\n    tag_271:\n        /* \"#utility.yul\":10408:10951   */\n      pop\n      pop\n      pop\n      jump\t// out\n        /* \"#utility.yul\":10957:11074   */\n    tag_140:\n        /* \"#utility.yul\":11011:11019   */\n      0x00\n        /* \"#utility.yul\":11061:11066   */\n      dup3\n        /* \"#utility.yul\":11055:11059   */\n      dup3\n        /* \"#utility.yul\":11051:11067   */\n      shr\n        /* \"#utility.yul\":11030:11067   */\n      swap1\n      pop\n        /* \"#utility.yul\":10957:11074   */\n      swap3\n      swap2\n      pop\n      pop\n      jump\t// out\n        /* \"#utility.yul\":11080:11249   */\n    tag_141:\n        /* \"#utility.yul\":11124:11130   */\n      0x00\n        /* \"#utility.yul\":11157:11208   */\n      tag_279\n        /* \"#utility.yul\":11205:11206   */\n      0x00\n        /* \"#utility.yul\":11201:11207   */\n      not\n        /* \"#utility.yul\":11193:11198   */\n      dup5\n        /* \"#utility.yul\":11190:11191   */\n      0x08\n        /* \"#utility.yul\":11186:11199   */\n      mul\n        /* \"#utility.yul\":11157:11208   */\n      tag_140\n      jump\t// in\n    tag_279:\n        /* \"#utility.yul\":11153:11209   */\n      not\n        /* \"#utility.yul\":11238:11242   */\n      dup1\n        /* \"#utility.yul\":11232:11236   */\n      dup4\n        /* \"#utility.yul\":11228:11243   */\n      and\n        /* \"#utility.yul\":11218:11243   */\n      swap2\n      pop\n        /* \"#utility.yul\":11131:11249   */\n      pop\n        /* \"#utility.yul\":11080:11249   */\n      swap3\n      swap2\n      pop\n      pop\n      jump\t// out\n        /* \"#utility.yul\":11254:11549   */\n    tag_142:\n        /* \"#utility.yul\":11330:11334   */\n      0x00\n        /* \"#utility.yul\":11476:11505   */\n      tag_281\n        /* \"#utility.yul\":11501:11504   */\n      dup4\n        /* \"#utility.yul\":11495:11499   */\n      dup4\n        /* \"#utility.yul\":11476:11505   */\n      tag_141\n      jump\t// in\n    tag_281:\n        /* \"#utility.yul\":11468:11505   */\n      swap2\n      pop\n        /* \"#utility.yul\":11538:11541   */\n      dup3\n        /* \"#utility.yul\":11535:11536   */\n      0x02\n        /* \"#utility.yul\":11531:11542   */\n      mul\n        /* \"#utility.yul\":11525:11529   */\n      dup3\n        /* \"#utility.yul\":11522:11543   */\n      or\n        /* \"#utility.yul\":11514:11543   */\n      swap1\n      pop\n        /* \"#utility.yul\":11254:11549   */\n      swap3\n      swap2\n      pop\n      pop\n      jump\t// out\n        /* \"#utility.yul\":11554:12949   */\n    tag_53:\n        /* \"#utility.yul\":11671:11708   */\n      tag_283\n        /* \"#utility.yul\":11704:11707   */\n      dup3\n        /* \"#utility.yul\":11671:11708   */\n      tag_103\n      jump\t// in\n    tag_283:\n        /* \"#utility.yul\":11773:11791   */\n      0xffffffffffffffff\n        /* \"#utility.yul\":11765:11771   */\n      dup2\n        /* \"#utility.yul\":11762:11792   */\n      gt\n        /* \"#utility.yul\":11759:11815   */\n      iszero\n      tag_284\n      jumpi\n        /* \"#utility.yul\":11795:11813   */\n      tag_285\n      tag_116\n      jump\t// in\n    tag_285:\n        /* \"#utility.yul\":11759:11815   */\n    tag_284:\n        /* \"#utility.yul\":11839:11877   */\n      tag_286\n        /* \"#utility.yul\":11871:11875   */\n      dup3\n        /* \"#utility.yul\":11865:11876   */\n      sload\n        /* \"#utility.yul\":11839:11877   */\n      tag_40\n      jump\t// in\n    tag_286:\n        /* \"#utility.yul\":11924:11991   */\n      tag_287\n        /* \"#utility.yul\":11984:11990   */\n      dup3\n        /* \"#utility.yul\":11976:11982   */\n      dup3\n        /* \"#utility.yul\":11970:11974   */\n      dup6\n        /* \"#utility.yul\":11924:11991   */\n      tag_139\n      jump\t// in\n    tag_287:\n        /* \"#utility.yul\":12018:12019   */\n      0x00\n        /* \"#utility.yul\":12042:12046   */\n      0x20\n        /* \"#utility.yul\":12029:12046   */\n      swap1\n      pop\n        /* \"#utility.yul\":12074:12076   */\n      0x1f\n        /* \"#utility.yul\":12066:12072   */\n      dup4\n        /* \"#utility.yul\":12063:12077   */\n      gt\n        /* \"#utility.yul\":12091:12092   */\n      0x01\n        /* \"#utility.yul\":12086:12704   */\n      dup2\n      eq\n      tag_289\n      jumpi\n        /* \"#utility.yul\":12748:12749   */\n      0x00\n        /* \"#utility.yul\":12765:12771   */\n      dup5\n        /* \"#utility.yul\":12762:12839   */\n      iszero\n      tag_290\n      jumpi\n        /* \"#utility.yul\":12814:12823   */\n      dup3\n        /* \"#utility.yul\":12809:12812   */\n      dup8\n        /* \"#utility.yul\":12805:12824   */\n      add\n        /* \"#utility.yul\":12799:12825   */\n      mload\n        /* \"#utility.yul\":12790:12825   */\n      swap1\n      pop\n        /* \"#utility.yul\":12762:12839   */\n    tag_290:\n        /* \"#utility.yul\":12865:12932   */\n      tag_291\n        /* \"#utility.yul\":12925:12931   */\n      dup6\n        /* \"#utility.yul\":12918:12923   */\n      dup3\n        /* \"#utility.yul\":12865:12932   */\n      tag_142\n      jump\t// in\n    tag_291:\n        /* \"#utility.yul\":12859:12863   */\n      dup7\n        /* \"#utility.yul\":12852:12933   */\n      sstore\n        /* \"#utility.yul\":12721:12943   */\n      pop\n        /* \"#utility.yul\":12056:12943   */\n      jump(tag_288)\n        /* \"#utility.yul\":12086:12704   */\n    tag_289:\n        /* \"#utility.yul\":12138:12142   */\n      0x1f\n        /* \"#utility.yul\":12134:12143   */\n      not\n        /* \"#utility.yul\":12126:12132   */\n      dup5\n        /* \"#utility.yul\":12122:12144   */\n      and\n        /* \"#utility.yul\":12172:12209   */\n      tag_292\n        /* \"#utility.yul\":12204:12208   */\n      dup7\n        /* \"#utility.yul\":12172:12209   */\n      tag_128\n      jump\t// in\n    tag_292:\n        /* \"#utility.yul\":12231:12232   */\n      0x00\n        /* \"#utility.yul\":12245:12453   */\n    tag_293:\n        /* \"#utility.yul\":12259:12266   */\n      dup3\n        /* \"#utility.yul\":12256:12257   */\n      dup2\n        /* \"#utility.yul\":12253:12267   */\n      lt\n        /* \"#utility.yul\":12245:12453   */\n      iszero\n      tag_295\n      jumpi\n        /* \"#utility.yul\":12338:12347   */\n      dup5\n        /* \"#utility.yul\":12333:12336   */\n      dup10\n        /* \"#utility.yul\":12329:12348   */\n      add\n        /* \"#utility.yul\":12323:12349   */\n      mload\n        /* \"#utility.yul\":12315:12321   */\n      dup3\n        /* \"#utility.yul\":12308:12350   */\n      sstore\n        /* \"#utility.yul\":12389:12390   */\n      0x01\n        /* \"#utility.yul\":12381:12387   */\n      dup3\n        /* \"#utility.yul\":12377:12391   */\n      add\n        /* \"#utility.yul\":12367:12391   */\n      swap2\n      pop\n        /* \"#utility.yul\":12436:12438   */\n      0x20\n        /* \"#utility.yul\":12425:12434   */\n      dup6\n        /* \"#utility.yul\":12421:12439   */\n      add\n        /* \"#utility.yul\":12408:12439   */\n      swap5\n      pop\n        /* \"#utility.yul\":12282:12286   */\n      0x20\n        /* \"#utility.yul\":12279:12280   */\n      dup2\n        /* \"#utility.yul\":12275:12287   */\n      add\n        /* \"#utility.yul\":12270:12287   */\n      swap1\n      pop\n        /* \"#utility.yul\":12245:12453   */\n      jump(tag_293)\n    tag_295:\n        /* \"#utility.yul\":12481:12487   */\n      dup7\n        /* \"#utility.yul\":12472:12479   */\n      dup4\n        /* \"#utility.yul\":12469:12488   */\n      lt\n        /* \"#utility.yul\":12466:12645   */\n      iszero\n      tag_296\n      jumpi\n        /* \"#utility.yul\":12539:12548   */\n      dup5\n        /* \"#utility.yul\":12534:12537   */\n      dup10\n        /* \"#utility.yul\":12530:12549   */\n      add\n        /* \"#utility.yul\":12524:12550   */\n      mload\n        /* \"#utility.yul\":12582:12630   */\n      tag_297\n        /* \"#utility.yul\":12624:12628   */\n      0x1f\n        /* \"#utility.yul\":12616:12622   */\n      dup10\n        /* \"#utility.yul\":12612:12629   */\n      and\n        /* \"#utility.yul\":12601:12610   */\n      dup3\n        /* \"#utility.yul\":12582:12630   */\n      tag_141\n      jump\t// in\n    tag_297:\n        /* \"#utility.yul\":12574:12580   */\n      dup4\n        /* \"#utility.yul\":12567:12631   */\n      sstore\n        /* \"#utility.yul\":12489:12645   */\n      pop\n        /* \"#utility.yul\":12466:12645   */\n    tag_296:\n        /* \"#utility.yul\":12691:12692   */\n      0x01\n        /* \"#utility.yul\":12687:12688   */\n      0x02\n        /* \"#utility.yul\":12679:12685   */\n      dup9\n        /* \"#utility.yul\":12675:12689   */\n      mul\n        /* \"#utility.yul\":12671:12693   */\n      add\n        /* \"#utility.yul\":12665:12669   */\n      dup9\n        /* \"#utility.yul\":12658:12694   */\n      sstore\n        /* \"#utility.yul\":12093:12704   */\n      pop\n      pop\n      pop\n        /* \"#utility.yul\":12056:12943   */\n    tag_288:\n      pop\n        /* \"#utility.yul\":11646:12949   */\n      pop\n      pop\n      pop\n        /* \"#utility.yul\":11554:12949   */\n      pop\n      pop\n      jump\t// out\n        /* \"#utility.yul\":12955:13103   */\n    tag_143:\n        /* \"#utility.yul\":13057:13068   */\n      0x00\n        /* \"#utility.yul\":13094:13097   */\n      dup2\n        /* \"#utility.yul\":13079:13097   */\n      swap1\n      pop\n        /* \"#utility.yul\":12955:13103   */\n      swap3\n      swap2\n      pop\n      pop\n      jump\t// out\n        /* \"#utility.yul\":13109:13499   */\n    tag_144:\n        /* \"#utility.yul\":13215:13218   */\n      0x00\n        /* \"#utility.yul\":13243:13282   */\n      tag_300\n        /* \"#utility.yul\":13276:13281   */\n      dup3\n        /* \"#utility.yul\":13243:13282   */\n      tag_103\n      jump\t// in\n    tag_300:\n        /* \"#utility.yul\":13298:13387   */\n      tag_301\n        /* \"#utility.yul\":13380:13386   */\n      dup2\n        /* \"#utility.yul\":13375:13378   */\n      dup6\n        /* \"#utility.yul\":13298:13387   */\n      tag_143\n      jump\t// in\n    tag_301:\n        /* \"#utility.yul\":13291:13387   */\n      swap4\n      pop\n        /* \"#utility.yul\":13396:13461   */\n      tag_302\n        /* \"#utility.yul\":13454:13460   */\n      dup2\n        /* \"#utility.yul\":13449:13452   */\n      dup6\n        /* \"#utility.yul\":13442:13446   */\n      0x20\n        /* \"#utility.yul\":13435:13440   */\n      dup7\n        /* \"#utility.yul\":13431:13447   */\n      add\n        /* \"#utility.yul\":13396:13461   */\n      tag_105\n      jump\t// in\n    tag_302:\n        /* \"#utility.yul\":13486:13492   */\n      dup1\n        /* \"#utility.yul\":13481:13484   */\n      dup5\n        /* \"#utility.yul\":13477:13493   */\n      add\n        /* \"#utility.yul\":13470:13493   */\n      swap2\n      pop\n        /* \"#utility.yul\":13219:13499   */\n      pop\n        /* \"#utility.yul\":13109:13499   */\n      swap3\n      swap2\n      pop\n      pop\n      jump\t// out\n        /* \"#utility.yul\":13505:13780   */\n    tag_56:\n        /* \"#utility.yul\":13637:13640   */\n      0x00\n        /* \"#utility.yul\":13659:13754   */\n      tag_304\n        /* \"#utility.yul\":13750:13753   */\n      dup3\n        /* \"#utility.yul\":13741:13747   */\n      dup5\n        /* \"#utility.yul\":13659:13754   */\n      tag_144\n      jump\t// in\n    tag_304:\n        /* \"#utility.yul\":13652:13754   */\n      swap2\n      pop\n        /* \"#utility.yul\":13771:13774   */\n      dup2\n        /* \"#utility.yul\":13764:13774   */\n      swap1\n      pop\n        /* \"#utility.yul\":13505:13780   */\n      swap3\n      swap2\n      pop\n      pop\n      jump\t// out\n        /* \"#utility.yul\":13786:13871   */\n    tag_145:\n        /* \"#utility.yul\":13831:13838   */\n      0x00\n        /* \"#utility.yul\":13860:13865   */\n      dup2\n        /* \"#utility.yul\":13849:13865   */\n      swap1\n      pop\n        /* \"#utility.yul\":13786:13871   */\n      swap2\n      swap1\n      pop\n      jump\t// out\n        /* \"#utility.yul\":13877:14035   */\n    tag_146:\n        /* \"#utility.yul\":13935:13944   */\n      0x00\n        /* \"#utility.yul\":13968:14029   */\n      tag_307\n        /* \"#utility.yul\":13986:14028   */\n      tag_308\n        /* \"#utility.yul\":13995:14027   */\n      tag_309\n        /* \"#utility.yul\":14021:14026   */\n      dup5\n        /* \"#utility.yul\":13995:14027   */\n      tag_145\n      jump\t// in\n    tag_309:\n        /* \"#utility.yul\":13986:14028   */\n      tag_132\n      jump\t// in\n    tag_308:\n        /* \"#utility.yul\":13968:14029   */\n      tag_100\n      jump\t// in\n    tag_307:\n        /* \"#utility.yul\":13955:14029   */\n      swap1\n      pop\n        /* \"#utility.yul\":13877:14035   */\n      swap2\n      swap1\n      pop\n      jump\t// out\n        /* \"#utility.yul\":14041:14188   */\n    tag_147:\n        /* \"#utility.yul\":14136:14181   */\n      tag_311\n        /* \"#utility.yul\":14175:14180   */\n      dup2\n        /* \"#utility.yul\":14136:14181   */\n      tag_146\n      jump\t// in\n    tag_311:\n        /* \"#utility.yul\":14131:14134   */\n      dup3\n        /* \"#utility.yul\":14124:14182   */\n      mstore\n        /* \"#utility.yul\":14041:14188   */\n      pop\n      pop\n      jump\t// out\n        /* \"#utility.yul\":14194:14731   */\n    tag_58:\n        /* \"#utility.yul\":14365:14369   */\n      0x00\n        /* \"#utility.yul\":14403:14405   */\n      0x60\n        /* \"#utility.yul\":14392:14401   */\n      dup3\n        /* \"#utility.yul\":14388:14406   */\n      add\n        /* \"#utility.yul\":14380:14406   */\n      swap1\n      pop\n        /* \"#utility.yul\":14416:14495   */\n      tag_313\n        /* \"#utility.yul\":14492:14493   */\n      0x00\n        /* \"#utility.yul\":14481:14490   */\n      dup4\n        /* \"#utility.yul\":14477:14494   */\n      add\n        /* \"#utility.yul\":14468:14474   */\n      dup7\n        /* \"#utility.yul\":14416:14495   */\n      tag_147\n      jump\t// in\n    tag_313:\n        /* \"#utility.yul\":14542:14551   */\n      dup2\n        /* \"#utility.yul\":14536:14540   */\n      dup2\n        /* \"#utility.yul\":14532:14552   */\n      sub\n        /* \"#utility.yul\":14527:14529   */\n      0x20\n        /* \"#utility.yul\":14516:14525   */\n      dup4\n        /* \"#utility.yul\":14512:14530   */\n      add\n        /* \"#utility.yul\":14505:14553   */\n      mstore\n        /* \"#utility.yul\":14570:14648   */\n      tag_314\n        /* \"#utility.yul\":14643:14647   */\n      dup2\n        /* \"#utility.yul\":14634:14640   */\n      dup6\n        /* \"#utility.yul\":14570:14648   */\n      tag_107\n      jump\t// in\n    tag_314:\n        /* \"#utility.yul\":14562:14648   */\n      swap1\n      pop\n        /* \"#utility.yul\":14658:14724   */\n      tag_315\n        /* \"#utility.yul\":14720:14722   */\n      0x40\n        /* \"#utility.yul\":14709:14718   */\n      dup4\n        /* \"#utility.yul\":14705:14723   */\n      add\n        /* \"#utility.yul\":14696:14702   */\n      dup5\n        /* \"#utility.yul\":14658:14724   */\n      tag_113\n      jump\t// in\n    tag_315:\n        /* \"#utility.yul\":14194:14731   */\n      swap5\n      swap4\n      pop\n      pop\n      pop\n      pop\n      jump\t// out\n        /* \"#utility.yul\":14737:14905   */\n    tag_148:\n        /* \"#utility.yul\":14877:14897   */\n      0x436f6d706c65746520796f7572207461736b0000000000000000000000000000\n        /* \"#utility.yul\":14873:14874   */\n      0x00\n        /* \"#utility.yul\":14865:14871   */\n      dup3\n        /* \"#utility.yul\":14861:14875   */\n      add\n        /* \"#utility.yul\":14854:14898   */\n      mstore\n        /* \"#utility.yul\":14737:14905   */\n      pop\n      jump\t// out\n        /* \"#utility.yul\":14911:15277   */\n    tag_149:\n        /* \"#utility.yul\":15053:15056   */\n      0x00\n        /* \"#utility.yul\":15074:15141   */\n      tag_318\n        /* \"#utility.yul\":15138:15140   */\n      0x12\n        /* \"#utility.yul\":15133:15136   */\n      dup4\n        /* \"#utility.yul\":15074:15141   */\n      tag_104\n      jump\t// in\n    tag_318:\n        /* \"#utility.yul\":15067:15141   */\n      swap2\n      pop\n        /* \"#utility.yul\":15150:15243   */\n      tag_319\n        /* \"#utility.yul\":15239:15242   */\n      dup3\n        /* \"#utility.yul\":15150:15243   */\n      tag_148\n      jump\t// in\n    tag_319:\n        /* \"#utility.yul\":15268:15270   */\n      0x20\n        /* \"#utility.yul\":15263:15266   */\n      dup3\n        /* \"#utility.yul\":15259:15271   */\n      add\n        /* \"#utility.yul\":15252:15271   */\n      swap1\n      pop\n        /* \"#utility.yul\":14911:15277   */\n      swap2\n      swap1\n      pop\n      jump\t// out\n        /* \"#utility.yul\":15283:15702   */\n    tag_91:\n        /* \"#utility.yul\":15449:15453   */\n      0x00\n        /* \"#utility.yul\":15487:15489   */\n      0x20\n        /* \"#utility.yul\":15476:15485   */\n      dup3\n        /* \"#utility.yul\":15472:15490   */\n      add\n        /* \"#utility.yul\":15464:15490   */\n      swap1\n      pop\n        /* \"#utility.yul\":15536:15545   */\n      dup2\n        /* \"#utility.yul\":15530:15534   */\n      dup2\n        /* \"#utility.yul\":15526:15546   */\n      sub\n        /* \"#utility.yul\":15522:15523   */\n      0x00\n        /* \"#utility.yul\":15511:15520   */\n      dup4\n        /* \"#utility.yul\":15507:15524   */\n      add\n        /* \"#utility.yul\":15500:15547   */\n      mstore\n        /* \"#utility.yul\":15564:15695   */\n      tag_321\n        /* \"#utility.yul\":15690:15694   */\n      dup2\n        /* \"#utility.yul\":15564:15695   */\n      tag_149\n      jump\t// in\n    tag_321:\n        /* \"#utility.yul\":15556:15695   */\n      swap1\n      pop\n        /* \"#utility.yul\":15283:15702   */\n      swap2\n      swap1\n      pop\n      jump\t// out\n        /* \"#utility.yul\":15708:15888   */\n    tag_150:\n        /* \"#utility.yul\":15756:15833   */\n      0x4e487b7100000000000000000000000000000000000000000000000000000000\n        /* \"#utility.yul\":15753:15754   */\n      0x00\n        /* \"#utility.yul\":15746:15834   */\n      mstore\n        /* \"#utility.yul\":15853:15857   */\n      0x11\n        /* \"#utility.yul\":15850:15851   */\n      0x04\n        /* \"#utility.yul\":15843:15858   */\n      mstore\n        /* \"#utility.yul\":15877:15881   */\n      0x24\n        /* \"#utility.yul\":15874:15875   */\n      0x00\n        /* \"#utility.yul\":15867:15882   */\n      revert\n        /* \"#utility.yul\":15894:16085   */\n    tag_96:\n        /* \"#utility.yul\":15934:15937   */\n      0x00\n        /* \"#utility.yul\":15953:15973   */\n      tag_324\n        /* \"#utility.yul\":15971:15972   */\n      dup3\n        /* \"#utility.yul\":15953:15973   */\n      tag_100\n      jump\t// in\n    tag_324:\n        /* \"#utility.yul\":15948:15973   */\n      swap2\n      pop\n        /* \"#utility.yul\":15987:16007   */\n      tag_325\n        /* \"#utility.yul\":16005:16006   */\n      dup4\n        /* \"#utility.yul\":15987:16007   */\n      tag_100\n      jump\t// in\n    tag_325:\n        /* \"#utility.yul\":15982:16007   */\n      swap3\n      pop\n        /* \"#utility.yul\":16030:16031   */\n      dup3\n        /* \"#utility.yul\":16027:16028   */\n      dup3\n        /* \"#utility.yul\":16023:16032   */\n      add\n        /* \"#utility.yul\":16016:16032   */\n      swap1\n      pop\n        /* \"#utility.yul\":16051:16054   */\n      dup1\n        /* \"#utility.yul\":16048:16049   */\n      dup3\n        /* \"#utility.yul\":16045:16055   */\n      gt\n        /* \"#utility.yul\":16042:16078   */\n      iszero\n      tag_326\n      jumpi\n        /* \"#utility.yul\":16058:16076   */\n      tag_327\n      tag_150\n      jump\t// in\n    tag_327:\n        /* \"#utility.yul\":16042:16078   */\n    tag_326:\n        /* \"#utility.yul\":15894:16085   */\n      swap3\n      swap2\n      pop\n      pop\n      jump\t// out\n\n    auxdata: 0xa26469706673582212201fb0d1810bdc7debade6724e6829302a9d89064fa9b9824308c0362a3658e0cd64736f6c63430008130033\n}\n",
				"bytecode": {
					"linkReferences": {},
					"object": "608060405233600160006101000a81548173ffffffffffffffffffffffffffffffffffffffff021916908373ffffffffffffffffffffffffffffffffffffffff1602179055506802b5e3af16b188000060025534801561005e57600080fd5b506110cb8061006e6000396000f3fe608060405234801561001057600080fd5b506004361061004c5760003560e01c80633014029114610051578063365b98b21461006d578063475a8645146100a15780639507d39a146100bd575b600080fd5b61006b6004803603810190610066919061080c565b6100f1565b005b6100876004803603810190610082919061080c565b6101ee565b604051610098959493929190610934565b60405180910390f35b6100bb60048036038101906100b69190610af6565b610371565b005b6100d760048036038101906100d2919061080c565b6104eb565b6040516100e8959493929190610934565b60405180910390f35b3373ffffffffffffffffffffffffffffffffffffffff166003828154811061011c5761011b610b81565b5b906000526020600020906004020160030160009054906101000a900473ffffffffffffffffffffffffffffffffffffffff1673ffffffffffffffffffffffffffffffffffffffff16146101a4576040517f08c379a000000000000000000000000000000000000000000000000000000000815260040161019b90610bfc565b60405180910390fd5b6001600382815481106101ba576101b9610b81565b5b906000526020600020906004020160030160146101000a81548160ff0219169083151502179055506101eb81610708565b50565b600381815481106101fe57600080fd5b906000526020600020906004020160009150905080600001805461022190610c4b565b80601f016020809104026020016040519081016040528092919081815260200182805461024d90610c4b565b801561029a5780601f1061026f5761010080835404028352916020019161029a565b820191906000526020600020905b81548152906001019060200180831161027d57829003601f168201915b5050505050908060010154908060020180546102b590610c4b565b80601f01602080910402602001604051908101604052809291908181526020018280546102e190610c4b565b801561032e5780601f106103035761010080835404028352916020019161032e565b820191906000526020600020905b81548152906001019060200180831161031157829003601f168201915b5050505050908060030160009054906101000a900473ffffffffffffffffffffffffffffffffffffffff16908060030160149054906101000a900460ff16905085565b60036040518060a00160405280858152602001600081526020018481526020018373ffffffffffffffffffffffffffffffffffffffff16815260200160001515815250908060018154018082558091505060019003906000526020600020906004020160009091909190915060008201518160000190816103f29190610e28565b506020820151816001015560408201518160020190816104129190610e28565b5060608201518160030160006101000a81548173ffffffffffffffffffffffffffffffffffffffff021916908373ffffffffffffffffffffffffffffffffffffffff16021790555060808201518160030160146101000a81548160ff02191690831515021790555050508073ffffffffffffffffffffffffffffffffffffffff16836040516104a19190610f36565b60405180910390207f9c5bdbb360a97f0b832ebecf589239b6ff9d42380ffc8b4ebfeb81d5ebb4b40660008560006040516104de93929190610f88565b60405180910390a3505050565b6060600060606000806003868154811061050857610507610b81565b5b90600052602060002090600402016000016003878154811061052d5761052c610b81565b5b9060005260206000209060040201600101546003888154811061055357610552610b81565b5b90600052602060002090600402016002016003898154811061057857610577610b81565b5b906000526020600020906004020160030160009054906101000a900473ffffffffffffffffffffffffffffffffffffffff1660038a815481106105be576105bd610b81565b5b906000526020600020906004020160030160149054906101000a900460ff168480546105e990610c4b565b80601f016020809104026020016040519081016040528092919081815260200182805461061590610c4b565b80156106625780601f1061063757610100808354040283529160200191610662565b820191906000526020600020905b81548152906001019060200180831161064557829003601f168201915b5050505050945082805461067590610c4b565b80601f01602080910402602001604051908101604052809291908181526020018280546106a190610c4b565b80156106ee5780601f106106c3576101008083540402835291602001916106ee565b820191906000526020600020905b8154815290600101906020018083116106d157829003601f168201915b505050505092509450945094509450945091939590929450565b60011515600382815481106107205761071f610b81565b5b906000526020600020906004020160030160149054906101000a900460ff16151514610781576040517f08c379a000000000000000000000000000000000000000000000000000000000815260040161077890611012565b60405180910390fd5b6002546003828154811061079857610797610b81565b5b906000526020600020906004020160010160008282546107b89190611061565b9250508190555050565b6000604051905090565b600080fd5b600080fd5b6000819050919050565b6107e9816107d6565b81146107f457600080fd5b50565b600081359050610806816107e0565b92915050565b600060208284031215610822576108216107cc565b5b6000610830848285016107f7565b91505092915050565b600081519050919050565b600082825260208201905092915050565b60005b83811015610873578082015181840152602081019050610858565b60008484015250505050565b6000601f19601f8301169050919050565b600061089b82610839565b6108a58185610844565b93506108b5818560208601610855565b6108be8161087f565b840191505092915050565b6108d2816107d6565b82525050565b600073ffffffffffffffffffffffffffffffffffffffff82169050919050565b6000610903826108d8565b9050919050565b610913816108f8565b82525050565b60008115159050919050565b61092e81610919565b82525050565b600060a082019050818103600083015261094e8188610890565b905061095d60208301876108c9565b818103604083015261096f8186610890565b905061097e606083018561090a565b61098b6080830184610925565b9695505050505050565b600080fd5b600080fd5b7f4e487b7100000000000000000000000000000000000000000000000000000000600052604160045260246000fd5b6109d78261087f565b810181811067ffffffffffffffff821117156109f6576109f561099f565b5b80604052505050565b6000610a096107c2565b9050610a1582826109ce565b919050565b600067ffffffffffffffff821115610a3557610a3461099f565b5b610a3e8261087f565b9050602081019050919050565b82818337600083830152505050565b6000610a6d610a6884610a1a565b6109ff565b905082815260208101848484011115610a8957610a8861099a565b5b610a94848285610a4b565b509392505050565b600082601f830112610ab157610ab0610995565b5b8135610ac1848260208601610a5a565b91505092915050565b610ad3816108f8565b8114610ade57600080fd5b50565b600081359050610af081610aca565b92915050565b600080600060608486031215610b0f57610b0e6107cc565b5b600084013567ffffffffffffffff811115610b2d57610b2c6107d1565b5b610b3986828701610a9c565b935050602084013567ffffffffffffffff811115610b5a57610b596107d1565b5b610b6686828701610a9c565b9250506040610b7786828701610ae1565b9150509250925092565b7f4e487b7100000000000000000000000000000000000000000000000000000000600052603260045260246000fd5b7f4e6f7420746865206f776e657200000000000000000000000000000000000000600082015250565b6000610be6600d83610844565b9150610bf182610bb0565b602082019050919050565b60006020820190508181036000830152610c1581610bd9565b9050919050565b7f4e487b7100000000000000000000000000000000000000000000000000000000600052602260045260246000fd5b60006002820490506001821680610c6357607f821691505b602082108103610c7657610c75610c1c565b5b50919050565b60008190508160005260206000209050919050565b60006020601f8301049050919050565b600082821b905092915050565b600060088302610cde7fffffffffffffffffffffffffffffffffffffffffffffffffffffffffffffffff82610ca1565b610ce88683610ca1565b95508019841693508086168417925050509392505050565b6000819050919050565b6000610d25610d20610d1b846107d6565b610d00565b6107d6565b9050919050565b6000819050919050565b610d3f83610d0a565b610d53610d4b82610d2c565b848454610cae565b825550505050565b600090565b610d68610d5b565b610d73818484610d36565b505050565b5b81811015610d9757610d8c600082610d60565b600181019050610d79565b5050565b601f821115610ddc57610dad81610c7c565b610db684610c91565b81016020851015610dc5578190505b610dd9610dd185610c91565b830182610d78565b50505b505050565b600082821c905092915050565b6000610dff60001984600802610de1565b1980831691505092915050565b6000610e188383610dee565b9150826002028217905092915050565b610e3182610839565b67ffffffffffffffff811115610e4a57610e4961099f565b5b610e548254610c4b565b610e5f828285610d9b565b600060209050601f831160018114610e925760008415610e80578287015190505b610e8a8582610e0c565b865550610ef2565b601f198416610ea086610c7c565b60005b82811015610ec857848901518255600182019150602085019450602081019050610ea3565b86831015610ee55784890151610ee1601f891682610dee565b8355505b6001600288020188555050505b505050505050565b600081905092915050565b6000610f1082610839565b610f1a8185610efa565b9350610f2a818560208601610855565b80840191505092915050565b6000610f428284610f05565b915081905092915050565b6000819050919050565b6000610f72610f6d610f6884610f4d565b610d00565b6107d6565b9050919050565b610f8281610f57565b82525050565b6000606082019050610f9d6000830186610f79565b8181036020830152610faf8185610890565b9050610fbe6040830184610925565b949350505050565b7f436f6d706c65746520796f7572207461736b0000000000000000000000000000600082015250565b6000610ffc601283610844565b915061100782610fc6565b602082019050919050565b6000602082019050818103600083015261102b81610fef565b9050919050565b7f4e487b7100000000000000000000000000000000000000000000000000000000600052601160045260246000fd5b600061106c826107d6565b9150611077836107d6565b925082820190508082111561108f5761108e611032565b5b9291505056fea26469706673582212201fb0d1810bdc7debade6724e6829302a9d89064fa9b9824308c0362a3658e0cd64736f6c63430008130033",
					"opcodes": "PUSH1 0x80 PUSH1 0x40 MSTORE CALLER PUSH1 0x1 PUSH1 0x0 PUSH2 0x100 EXP DUP2 SLOAD DUP2 PUSH20 0xFFFFFFFFFFFFFFFFFFFFFFFFFFFFFFFFFFFFFFFF MUL NOT AND SWAP1 DUP4 PUSH20 0xFFFFFFFFFFFFFFFFFFFFFFFFFFFFFFFFFFFFFFFF AND MUL OR SWAP1 SSTORE POP PUSH9 0x2B5E3AF16B1880000 PUSH1 0x2 SSTORE CALLVALUE DUP1 ISZERO PUSH2 0x5E JUMPI PUSH1 0x0 DUP1 REVERT JUMPDEST POP PUSH2 0x10CB DUP1 PUSH2 0x6E PUSH1 0x0 CODECOPY PUSH1 0x0 RETURN INVALID PUSH1 0x80 PUSH1 0x40 MSTORE CALLVALUE DUP1 ISZERO PUSH2 0x10 JUMPI PUSH1 0x0 DUP1 REVERT JUMPDEST POP PUSH1 0x4 CALLDATASIZE LT PUSH2 0x4C JUMPI PUSH1 0x0 CALLDATALOAD PUSH1 0xE0 SHR DUP1 PUSH4 0x30140291 EQ PUSH2 0x51 JUMPI DUP1 PUSH4 0x365B98B2 EQ PUSH2 0x6D JUMPI DUP1 PUSH4 0x475A8645 EQ PUSH2 0xA1 JUMPI DUP1 PUSH4 0x9507D39A EQ PUSH2 0xBD JUMPI JUMPDEST PUSH1 0x0 DUP1 REVERT JUMPDEST PUSH2 0x6B PUSH1 0x4 DUP1 CALLDATASIZE SUB DUP2 ADD SWAP1 PUSH2 0x66 SWAP2 SWAP1 PUSH2 0x80C JUMP JUMPDEST PUSH2 0xF1 JUMP JUMPDEST STOP JUMPDEST PUSH2 0x87 PUSH1 0x4 DUP1 CALLDATASIZE SUB DUP2 ADD SWAP1 PUSH2 0x82 SWAP2 SWAP1 PUSH2 0x80C JUMP JUMPDEST PUSH2 0x1EE JUMP JUMPDEST PUSH1 0x40 MLOAD PUSH2 0x98 SWAP6 SWAP5 SWAP4 SWAP3 SWAP2 SWAP1 PUSH2 0x934 JUMP JUMPDEST PUSH1 0x40 MLOAD DUP1 SWAP2 SUB SWAP1 RETURN JUMPDEST PUSH2 0xBB PUSH1 0x4 DUP1 CALLDATASIZE SUB DUP2 ADD SWAP1 PUSH2 0xB6 SWAP2 SWAP1 PUSH2 0xAF6 JUMP JUMPDEST PUSH2 0x371 JUMP JUMPDEST STOP JUMPDEST PUSH2 0xD7 PUSH1 0x4 DUP1 CALLDATASIZE SUB DUP2 ADD SWAP1 PUSH2 0xD2 SWAP2 SWAP1 PUSH2 0x80C JUMP JUMPDEST PUSH2 0x4EB JUMP JUMPDEST PUSH1 0x40 MLOAD PUSH2 0xE8 SWAP6 SWAP5 SWAP4 SWAP3 SWAP2 SWAP1 PUSH2 0x934 JUMP JUMPDEST PUSH1 0x40 MLOAD DUP1 SWAP2 SUB SWAP1 RETURN JUMPDEST CALLER PUSH20 0xFFFFFFFFFFFFFFFFFFFFFFFFFFFFFFFFFFFFFFFF AND PUSH1 0x3 DUP3 DUP2 SLOAD DUP2 LT PUSH2 0x11C JUMPI PUSH2 0x11B PUSH2 0xB81 JUMP JUMPDEST JUMPDEST SWAP1 PUSH1 0x0 MSTORE PUSH1 0x20 PUSH1 0x0 KECCAK256 SWAP1 PUSH1 0x4 MUL ADD PUSH1 0x3 ADD PUSH1 0x0 SWAP1 SLOAD SWAP1 PUSH2 0x100 EXP SWAP1 DIV PUSH20 0xFFFFFFFFFFFFFFFFFFFFFFFFFFFFFFFFFFFFFFFF AND PUSH20 0xFFFFFFFFFFFFFFFFFFFFFFFFFFFFFFFFFFFFFFFF AND EQ PUSH2 0x1A4 JUMPI PUSH1 0x40 MLOAD PUSH32 0x8C379A000000000000000000000000000000000000000000000000000000000 DUP2 MSTORE PUSH1 0x4 ADD PUSH2 0x19B SWAP1 PUSH2 0xBFC JUMP JUMPDEST PUSH1 0x40 MLOAD DUP1 SWAP2 SUB SWAP1 REVERT JUMPDEST PUSH1 0x1 PUSH1 0x3 DUP3 DUP2 SLOAD DUP2 LT PUSH2 0x1BA JUMPI PUSH2 0x1B9 PUSH2 0xB81 JUMP JUMPDEST JUMPDEST SWAP1 PUSH1 0x0 MSTORE PUSH1 0x20 PUSH1 0x0 KECCAK256 SWAP1 PUSH1 0x4 MUL ADD PUSH1 0x3 ADD PUSH1 0x14 PUSH2 0x100 EXP DUP2 SLOAD DUP2 PUSH1 0xFF MUL NOT AND SWAP1 DUP4 ISZERO ISZERO MUL OR SWAP1 SSTORE POP PUSH2 0x1EB DUP2 PUSH2 0x708 JUMP JUMPDEST POP JUMP JUMPDEST PUSH1 0x3 DUP2 DUP2 SLOAD DUP2 LT PUSH2 0x1FE JUMPI PUSH1 0x0 DUP1 REVERT JUMPDEST SWAP1 PUSH1 0x0 MSTORE PUSH1 0x20 PUSH1 0x0 KECCAK256 SWAP1 PUSH1 0x4 MUL ADD PUSH1 0x0 SWAP2 POP SWAP1 POP DUP1 PUSH1 0x0 ADD DUP1 SLOAD PUSH2 0x221 SWAP1 PUSH2 0xC4B JUMP JUMPDEST DUP1 PUSH1 0x1F ADD PUSH1 0x20 DUP1 SWAP2 DIV MUL PUSH1 0x20 ADD PUSH1 0x40 MLOAD SWAP1 DUP2 ADD PUSH1 0x40 MSTORE DUP1 SWAP3 SWAP2 SWAP1 DUP2 DUP2 MSTORE PUSH1 0x20 ADD DUP3 DUP1 SLOAD PUSH2 0x24D SWAP1 PUSH2 0xC4B JUMP JUMPDEST DUP1 ISZERO PUSH2 0x29A JUMPI DUP1 PUSH1 0x1F LT PUSH2 0x26F JUMPI PUSH2 0x100 DUP1 DUP4 SLOAD DIV MUL DUP4 MSTORE SWAP2 PUSH1 0x20 ADD SWAP2 PUSH2 0x29A JUMP JUMPDEST DUP3 ADD SWAP2 SWAP1 PUSH1 0x0 MSTORE PUSH1 0x20 PUSH1 0x0 KECCAK256 SWAP1 JUMPDEST DUP2 SLOAD DUP2 MSTORE SWAP1 PUSH1 0x1 ADD SWAP1 PUSH1 0x20 ADD DUP1 DUP4 GT PUSH2 0x27D JUMPI DUP3 SWAP1 SUB PUSH1 0x1F AND DUP3 ADD SWAP2 JUMPDEST POP POP POP POP POP SWAP1 DUP1 PUSH1 0x1 ADD SLOAD SWAP1 DUP1 PUSH1 0x2 ADD DUP1 SLOAD PUSH2 0x2B5 SWAP1 PUSH2 0xC4B JUMP JUMPDEST DUP1 PUSH1 0x1F ADD PUSH1 0x20 DUP1 SWAP2 DIV MUL PUSH1 0x20 ADD PUSH1 0x40 MLOAD SWAP1 DUP2 ADD PUSH1 0x40 MSTORE DUP1 SWAP3 SWAP2 SWAP1 DUP2 DUP2 MSTORE PUSH1 0x20 ADD DUP3 DUP1 SLOAD PUSH2 0x2E1 SWAP1 PUSH2 0xC4B JUMP JUMPDEST DUP1 ISZERO PUSH2 0x32E JUMPI DUP1 PUSH1 0x1F LT PUSH2 0x303 JUMPI PUSH2 0x100 DUP1 DUP4 SLOAD DIV MUL DUP4 MSTORE SWAP2 PUSH1 0x20 ADD SWAP2 PUSH2 0x32E JUMP JUMPDEST DUP3 ADD SWAP2 SWAP1 PUSH1 0x0 MSTORE PUSH1 0x20 PUSH1 0x0 KECCAK256 SWAP1 JUMPDEST DUP2 SLOAD DUP2 MSTORE SWAP1 PUSH1 0x1 ADD SWAP1 PUSH1 0x20 ADD DUP1 DUP4 GT PUSH2 0x311 JUMPI DUP3 SWAP1 SUB PUSH1 0x1F AND DUP3 ADD SWAP2 JUMPDEST POP POP POP POP POP SWAP1 DUP1 PUSH1 0x3 ADD PUSH1 0x0 SWAP1 SLOAD SWAP1 PUSH2 0x100 EXP SWAP1 DIV PUSH20 0xFFFFFFFFFFFFFFFFFFFFFFFFFFFFFFFFFFFFFFFF AND SWAP1 DUP1 PUSH1 0x3 ADD PUSH1 0x14 SWAP1 SLOAD SWAP1 PUSH2 0x100 EXP SWAP1 DIV PUSH1 0xFF AND SWAP1 POP DUP6 JUMP JUMPDEST PUSH1 0x3 PUSH1 0x40 MLOAD DUP1 PUSH1 0xA0 ADD PUSH1 0x40 MSTORE DUP1 DUP6 DUP2 MSTORE PUSH1 0x20 ADD PUSH1 0x0 DUP2 MSTORE PUSH1 0x20 ADD DUP5 DUP2 MSTORE PUSH1 0x20 ADD DUP4 PUSH20 0xFFFFFFFFFFFFFFFFFFFFFFFFFFFFFFFFFFFFFFFF AND DUP2 MSTORE PUSH1 0x20 ADD PUSH1 0x0 ISZERO ISZERO DUP2 MSTORE POP SWAP1 DUP1 PUSH1 0x1 DUP2 SLOAD ADD DUP1 DUP3 SSTORE DUP1 SWAP2 POP POP PUSH1 0x1 SWAP1 SUB SWAP1 PUSH1 0x0 MSTORE PUSH1 0x20 PUSH1 0x0 KECCAK256 SWAP1 PUSH1 0x4 MUL ADD PUSH1 0x0 SWAP1 SWAP2 SWAP1 SWAP2 SWAP1 SWAP2 POP PUSH1 0x0 DUP3 ADD MLOAD DUP2 PUSH1 0x0 ADD SWAP1 DUP2 PUSH2 0x3F2 SWAP2 SWAP1 PUSH2 0xE28 JUMP JUMPDEST POP PUSH1 0x20 DUP3 ADD MLOAD DUP2 PUSH1 0x1 ADD SSTORE PUSH1 0x40 DUP3 ADD MLOAD DUP2 PUSH1 0x2 ADD SWAP1 DUP2 PUSH2 0x412 SWAP2 SWAP1 PUSH2 0xE28 JUMP JUMPDEST POP PUSH1 0x60 DUP3 ADD MLOAD DUP2 PUSH1 0x3 ADD PUSH1 0x0 PUSH2 0x100 EXP DUP2 SLOAD DUP2 PUSH20 0xFFFFFFFFFFFFFFFFFFFFFFFFFFFFFFFFFFFFFFFF MUL NOT AND SWAP1 DUP4 PUSH20 0xFFFFFFFFFFFFFFFFFFFFFFFFFFFFFFFFFFFFFFFF AND MUL OR SWAP1 SSTORE POP PUSH1 0x80 DUP3 ADD MLOAD DUP2 PUSH1 0x3 ADD PUSH1 0x14 PUSH2 0x100 EXP DUP2 SLOAD DUP2 PUSH1 0xFF MUL NOT AND SWAP1 DUP4 ISZERO ISZERO MUL OR SWAP1 SSTORE POP POP POP DUP1 PUSH20 0xFFFFFFFFFFFFFFFFFFFFFFFFFFFFFFFFFFFFFFFF AND DUP4 PUSH1 0x40 MLOAD PUSH2 0x4A1 SWAP2 SWAP1 PUSH2 0xF36 JUMP JUMPDEST PUSH1 0x40 MLOAD DUP1 SWAP2 SUB SWAP1 KECCAK256 PUSH32 0x9C5BDBB360A97F0B832EBECF589239B6FF9D42380FFC8B4EBFEB81D5EBB4B406 PUSH1 0x0 DUP6 PUSH1 0x0 PUSH1 0x40 MLOAD PUSH2 0x4DE SWAP4 SWAP3 SWAP2 SWAP1 PUSH2 0xF88 JUMP JUMPDEST PUSH1 0x40 MLOAD DUP1 SWAP2 SUB SWAP1 LOG3 POP POP POP JUMP JUMPDEST PUSH1 0x60 PUSH1 0x0 PUSH1 0x60 PUSH1 0x0 DUP1 PUSH1 0x3 DUP7 DUP2 SLOAD DUP2 LT PUSH2 0x508 JUMPI PUSH2 0x507 PUSH2 0xB81 JUMP JUMPDEST JUMPDEST SWAP1 PUSH1 0x0 MSTORE PUSH1 0x20 PUSH1 0x0 KECCAK256 SWAP1 PUSH1 0x4 MUL ADD PUSH1 0x0 ADD PUSH1 0x3 DUP8 DUP2 SLOAD DUP2 LT PUSH2 0x52D JUMPI PUSH2 0x52C PUSH2 0xB81 JUMP JUMPDEST JUMPDEST SWAP1 PUSH1 0x0 MSTORE PUSH1 0x20 PUSH1 0x0 KECCAK256 SWAP1 PUSH1 0x4 MUL ADD PUSH1 0x1 ADD SLOAD PUSH1 0x3 DUP9 DUP2 SLOAD DUP2 LT PUSH2 0x553 JUMPI PUSH2 0x552 PUSH2 0xB81 JUMP JUMPDEST JUMPDEST SWAP1 PUSH1 0x0 MSTORE PUSH1 0x20 PUSH1 0x0 KECCAK256 SWAP1 PUSH1 0x4 MUL ADD PUSH1 0x2 ADD PUSH1 0x3 DUP10 DUP2 SLOAD DUP2 LT PUSH2 0x578 JUMPI PUSH2 0x577 PUSH2 0xB81 JUMP JUMPDEST JUMPDEST SWAP1 PUSH1 0x0 MSTORE PUSH1 0x20 PUSH1 0x0 KECCAK256 SWAP1 PUSH1 0x4 MUL ADD PUSH1 0x3 ADD PUSH1 0x0 SWAP1 SLOAD SWAP1 PUSH2 0x100 EXP SWAP1 DIV PUSH20 0xFFFFFFFFFFFFFFFFFFFFFFFFFFFFFFFFFFFFFFFF AND PUSH1 0x3 DUP11 DUP2 SLOAD DUP2 LT PUSH2 0x5BE JUMPI PUSH2 0x5BD PUSH2 0xB81 JUMP JUMPDEST JUMPDEST SWAP1 PUSH1 0x0 MSTORE PUSH1 0x20 PUSH1 0x0 KECCAK256 SWAP1 PUSH1 0x4 MUL ADD PUSH1 0x3 ADD PUSH1 0x14 SWAP1 SLOAD SWAP1 PUSH2 0x100 EXP SWAP1 DIV PUSH1 0xFF AND DUP5 DUP1 SLOAD PUSH2 0x5E9 SWAP1 PUSH2 0xC4B JUMP JUMPDEST DUP1 PUSH1 0x1F ADD PUSH1 0x20 DUP1 SWAP2 DIV MUL PUSH1 0x20 ADD PUSH1 0x40 MLOAD SWAP1 DUP2 ADD PUSH1 0x40 MSTORE DUP1 SWAP3 SWAP2 SWAP1 DUP2 DUP2 MSTORE PUSH1 0x20 ADD DUP3 DUP1 SLOAD PUSH2 0x615 SWAP1 PUSH2 0xC4B JUMP JUMPDEST DUP1 ISZERO PUSH2 0x662 JUMPI DUP1 PUSH1 0x1F LT PUSH2 0x637 JUMPI PUSH2 0x100 DUP1 DUP4 SLOAD DIV MUL DUP4 MSTORE SWAP2 PUSH1 0x20 ADD SWAP2 PUSH2 0x662 JUMP JUMPDEST DUP3 ADD SWAP2 SWAP1 PUSH1 0x0 MSTORE PUSH1 0x20 PUSH1 0x0 KECCAK256 SWAP1 JUMPDEST DUP2 SLOAD DUP2 MSTORE SWAP1 PUSH1 0x1 ADD SWAP1 PUSH1 0x20 ADD DUP1 DUP4 GT PUSH2 0x645 JUMPI DUP3 SWAP1 SUB PUSH1 0x1F AND DUP3 ADD SWAP2 JUMPDEST POP POP POP POP POP SWAP5 POP DUP3 DUP1 SLOAD PUSH2 0x675 SWAP1 PUSH2 0xC4B JUMP JUMPDEST DUP1 PUSH1 0x1F ADD PUSH1 0x20 DUP1 SWAP2 DIV MUL PUSH1 0x20 ADD PUSH1 0x40 MLOAD SWAP1 DUP2 ADD PUSH1 0x40 MSTORE DUP1 SWAP3 SWAP2 SWAP1 DUP2 DUP2 MSTORE PUSH1 0x20 ADD DUP3 DUP1 SLOAD PUSH2 0x6A1 SWAP1 PUSH2 0xC4B JUMP JUMPDEST DUP1 ISZERO PUSH2 0x6EE JUMPI DUP1 PUSH1 0x1F LT PUSH2 0x6C3 JUMPI PUSH2 0x100 DUP1 DUP4 SLOAD DIV MUL DUP4 MSTORE SWAP2 PUSH1 0x20 ADD SWAP2 PUSH2 0x6EE JUMP JUMPDEST DUP3 ADD SWAP2 SWAP1 PUSH1 0x0 MSTORE PUSH1 0x20 PUSH1 0x0 KECCAK256 SWAP1 JUMPDEST DUP2 SLOAD DUP2 MSTORE SWAP1 PUSH1 0x1 ADD SWAP1 PUSH1 0x20 ADD DUP1 DUP4 GT PUSH2 0x6D1 JUMPI DUP3 SWAP1 SUB PUSH1 0x1F AND DUP3 ADD SWAP2 JUMPDEST POP POP POP POP POP SWAP3 POP SWAP5 POP SWAP5 POP SWAP5 POP SWAP5 POP SWAP5 POP SWAP2 SWAP4 SWAP6 SWAP1 SWAP3 SWAP5 POP JUMP JUMPDEST PUSH1 0x1 ISZERO ISZERO PUSH1 0x3 DUP3 DUP2 SLOAD DUP2 LT PUSH2 0x720 JUMPI PUSH2 0x71F PUSH2 0xB81 JUMP JUMPDEST JUMPDEST SWAP1 PUSH1 0x0 MSTORE PUSH1 0x20 PUSH1 0x0 KECCAK256 SWAP1 PUSH1 0x4 MUL ADD PUSH1 0x3 ADD PUSH1 0x14 SWAP1 SLOAD SWAP1 PUSH2 0x100 EXP SWAP1 DIV PUSH1 0xFF AND ISZERO ISZERO EQ PUSH2 0x781 JUMPI PUSH1 0x40 MLOAD PUSH32 0x8C379A000000000000000000000000000000000000000000000000000000000 DUP2 MSTORE PUSH1 0x4 ADD PUSH2 0x778 SWAP1 PUSH2 0x1012 JUMP JUMPDEST PUSH1 0x40 MLOAD DUP1 SWAP2 SUB SWAP1 REVERT JUMPDEST PUSH1 0x2 SLOAD PUSH1 0x3 DUP3 DUP2 SLOAD DUP2 LT PUSH2 0x798 JUMPI PUSH2 0x797 PUSH2 0xB81 JUMP JUMPDEST JUMPDEST SWAP1 PUSH1 0x0 MSTORE PUSH1 0x20 PUSH1 0x0 KECCAK256 SWAP1 PUSH1 0x4 MUL ADD PUSH1 0x1 ADD PUSH1 0x0 DUP3 DUP3 SLOAD PUSH2 0x7B8 SWAP2 SWAP1 PUSH2 0x1061 JUMP JUMPDEST SWAP3 POP POP DUP2 SWAP1 SSTORE POP POP JUMP JUMPDEST PUSH1 0x0 PUSH1 0x40 MLOAD SWAP1 POP SWAP1 JUMP JUMPDEST PUSH1 0x0 DUP1 REVERT JUMPDEST PUSH1 0x0 DUP1 REVERT JUMPDEST PUSH1 0x0 DUP2 SWAP1 POP SWAP2 SWAP1 POP JUMP JUMPDEST PUSH2 0x7E9 DUP2 PUSH2 0x7D6 JUMP JUMPDEST DUP2 EQ PUSH2 0x7F4 JUMPI PUSH1 0x0 DUP1 REVERT JUMPDEST POP JUMP JUMPDEST PUSH1 0x0 DUP2 CALLDATALOAD SWAP1 POP PUSH2 0x806 DUP2 PUSH2 0x7E0 JUMP JUMPDEST SWAP3 SWAP2 POP POP JUMP JUMPDEST PUSH1 0x0 PUSH1 0x20 DUP3 DUP5 SUB SLT ISZERO PUSH2 0x822 JUMPI PUSH2 0x821 PUSH2 0x7CC JUMP JUMPDEST JUMPDEST PUSH1 0x0 PUSH2 0x830 DUP5 DUP3 DUP6 ADD PUSH2 0x7F7 JUMP JUMPDEST SWAP2 POP POP SWAP3 SWAP2 POP POP JUMP JUMPDEST PUSH1 0x0 DUP2 MLOAD SWAP1 POP SWAP2 SWAP1 POP JUMP JUMPDEST PUSH1 0x0 DUP3 DUP3 MSTORE PUSH1 0x20 DUP3 ADD SWAP1 POP SWAP3 SWAP2 POP POP JUMP JUMPDEST PUSH1 0x0 JUMPDEST DUP4 DUP2 LT ISZERO PUSH2 0x873 JUMPI DUP1 DUP3 ADD MLOAD DUP2 DUP5 ADD MSTORE PUSH1 0x20 DUP2 ADD SWAP1 POP PUSH2 0x858 JUMP JUMPDEST PUSH1 0x0 DUP5 DUP5 ADD MSTORE POP POP POP POP JUMP JUMPDEST PUSH1 0x0 PUSH1 0x1F NOT PUSH1 0x1F DUP4 ADD AND SWAP1 POP SWAP2 SWAP1 POP JUMP JUMPDEST PUSH1 0x0 PUSH2 0x89B DUP3 PUSH2 0x839 JUMP JUMPDEST PUSH2 0x8A5 DUP2 DUP6 PUSH2 0x844 JUMP JUMPDEST SWAP4 POP PUSH2 0x8B5 DUP2 DUP6 PUSH1 0x20 DUP7 ADD PUSH2 0x855 JUMP JUMPDEST PUSH2 0x8BE DUP2 PUSH2 0x87F JUMP JUMPDEST DUP5 ADD SWAP2 POP POP SWAP3 SWAP2 POP POP JUMP JUMPDEST PUSH2 0x8D2 DUP2 PUSH2 0x7D6 JUMP JUMPDEST DUP3 MSTORE POP POP JUMP JUMPDEST PUSH1 0x0 PUSH20 0xFFFFFFFFFFFFFFFFFFFFFFFFFFFFFFFFFFFFFFFF DUP3 AND SWAP1 POP SWAP2 SWAP1 POP JUMP JUMPDEST PUSH1 0x0 PUSH2 0x903 DUP3 PUSH2 0x8D8 JUMP JUMPDEST SWAP1 POP SWAP2 SWAP1 POP JUMP JUMPDEST PUSH2 0x913 DUP2 PUSH2 0x8F8 JUMP JUMPDEST DUP3 MSTORE POP POP JUMP JUMPDEST PUSH1 0x0 DUP2 ISZERO ISZERO SWAP1 POP SWAP2 SWAP1 POP JUMP JUMPDEST PUSH2 0x92E DUP2 PUSH2 0x919 JUMP JUMPDEST DUP3 MSTORE POP POP JUMP JUMPDEST PUSH1 0x0 PUSH1 0xA0 DUP3 ADD SWAP1 POP DUP2 DUP2 SUB PUSH1 0x0 DUP4 ADD MSTORE PUSH2 0x94E DUP2 DUP9 PUSH2 0x890 JUMP JUMPDEST SWAP1 POP PUSH2 0x95D PUSH1 0x20 DUP4 ADD DUP8 PUSH2 0x8C9 JUMP JUMPDEST DUP2 DUP2 SUB PUSH1 0x40 DUP4 ADD MSTORE PUSH2 0x96F DUP2 DUP7 PUSH2 0x890 JUMP JUMPDEST SWAP1 POP PUSH2 0x97E PUSH1 0x60 DUP4 ADD DUP6 PUSH2 0x90A JUMP JUMPDEST PUSH2 0x98B PUSH1 0x80 DUP4 ADD DUP5 PUSH2 0x925 JUMP JUMPDEST SWAP7 SWAP6 POP POP POP POP POP POP JUMP JUMPDEST PUSH1 0x0 DUP1 REVERT JUMPDEST PUSH1 0x0 DUP1 REVERT JUMPDEST PUSH32 0x4E487B7100000000000000000000000000000000000000000000000000000000 PUSH1 0x0 MSTORE PUSH1 0x41 PUSH1 0x4 MSTORE PUSH1 0x24 PUSH1 0x0 REVERT JUMPDEST PUSH2 0x9D7 DUP3 PUSH2 0x87F JUMP JUMPDEST DUP2 ADD DUP2 DUP2 LT PUSH8 0xFFFFFFFFFFFFFFFF DUP3 GT OR ISZERO PUSH2 0x9F6 JUMPI PUSH2 0x9F5 PUSH2 0x99F JUMP JUMPDEST JUMPDEST DUP1 PUSH1 0x40 MSTORE POP POP POP JUMP JUMPDEST PUSH1 0x0 PUSH2 0xA09 PUSH2 0x7C2 JUMP JUMPDEST SWAP1 POP PUSH2 0xA15 DUP3 DUP3 PUSH2 0x9CE JUMP JUMPDEST SWAP2 SWAP1 POP JUMP JUMPDEST PUSH1 0x0 PUSH8 0xFFFFFFFFFFFFFFFF DUP3 GT ISZERO PUSH2 0xA35 JUMPI PUSH2 0xA34 PUSH2 0x99F JUMP JUMPDEST JUMPDEST PUSH2 0xA3E DUP3 PUSH2 0x87F JUMP JUMPDEST SWAP1 POP PUSH1 0x20 DUP2 ADD SWAP1 POP SWAP2 SWAP1 POP JUMP JUMPDEST DUP3 DUP2 DUP4 CALLDATACOPY PUSH1 0x0 DUP4 DUP4 ADD MSTORE POP POP POP JUMP JUMPDEST PUSH1 0x0 PUSH2 0xA6D PUSH2 0xA68 DUP5 PUSH2 0xA1A JUMP JUMPDEST PUSH2 0x9FF JUMP JUMPDEST SWAP1 POP DUP3 DUP2 MSTORE PUSH1 0x20 DUP2 ADD DUP5 DUP5 DUP5 ADD GT ISZERO PUSH2 0xA89 JUMPI PUSH2 0xA88 PUSH2 0x99A JUMP JUMPDEST JUMPDEST PUSH2 0xA94 DUP5 DUP3 DUP6 PUSH2 0xA4B JUMP JUMPDEST POP SWAP4 SWAP3 POP POP POP JUMP JUMPDEST PUSH1 0x0 DUP3 PUSH1 0x1F DUP4 ADD SLT PUSH2 0xAB1 JUMPI PUSH2 0xAB0 PUSH2 0x995 JUMP JUMPDEST JUMPDEST DUP2 CALLDATALOAD PUSH2 0xAC1 DUP5 DUP3 PUSH1 0x20 DUP7 ADD PUSH2 0xA5A JUMP JUMPDEST SWAP2 POP POP SWAP3 SWAP2 POP POP JUMP JUMPDEST PUSH2 0xAD3 DUP2 PUSH2 0x8F8 JUMP JUMPDEST DUP2 EQ PUSH2 0xADE JUMPI PUSH1 0x0 DUP1 REVERT JUMPDEST POP JUMP JUMPDEST PUSH1 0x0 DUP2 CALLDATALOAD SWAP1 POP PUSH2 0xAF0 DUP2 PUSH2 0xACA JUMP JUMPDEST SWAP3 SWAP2 POP POP JUMP JUMPDEST PUSH1 0x0 DUP1 PUSH1 0x0 PUSH1 0x60 DUP5 DUP7 SUB SLT ISZERO PUSH2 0xB0F JUMPI PUSH2 0xB0E PUSH2 0x7CC JUMP JUMPDEST JUMPDEST PUSH1 0x0 DUP5 ADD CALLDATALOAD PUSH8 0xFFFFFFFFFFFFFFFF DUP2 GT ISZERO PUSH2 0xB2D JUMPI PUSH2 0xB2C PUSH2 0x7D1 JUMP JUMPDEST JUMPDEST PUSH2 0xB39 DUP7 DUP3 DUP8 ADD PUSH2 0xA9C JUMP JUMPDEST SWAP4 POP POP PUSH1 0x20 DUP5 ADD CALLDATALOAD PUSH8 0xFFFFFFFFFFFFFFFF DUP2 GT ISZERO PUSH2 0xB5A JUMPI PUSH2 0xB59 PUSH2 0x7D1 JUMP JUMPDEST JUMPDEST PUSH2 0xB66 DUP7 DUP3 DUP8 ADD PUSH2 0xA9C JUMP JUMPDEST SWAP3 POP POP PUSH1 0x40 PUSH2 0xB77 DUP7 DUP3 DUP8 ADD PUSH2 0xAE1 JUMP JUMPDEST SWAP2 POP POP SWAP3 POP SWAP3 POP SWAP3 JUMP JUMPDEST PUSH32 0x4E487B7100000000000000000000000000000000000000000000000000000000 PUSH1 0x0 MSTORE PUSH1 0x32 PUSH1 0x4 MSTORE PUSH1 0x24 PUSH1 0x0 REVERT JUMPDEST PUSH32 0x4E6F7420746865206F776E657200000000000000000000000000000000000000 PUSH1 0x0 DUP3 ADD MSTORE POP JUMP JUMPDEST PUSH1 0x0 PUSH2 0xBE6 PUSH1 0xD DUP4 PUSH2 0x844 JUMP JUMPDEST SWAP2 POP PUSH2 0xBF1 DUP3 PUSH2 0xBB0 JUMP JUMPDEST PUSH1 0x20 DUP3 ADD SWAP1 POP SWAP2 SWAP1 POP JUMP JUMPDEST PUSH1 0x0 PUSH1 0x20 DUP3 ADD SWAP1 POP DUP2 DUP2 SUB PUSH1 0x0 DUP4 ADD MSTORE PUSH2 0xC15 DUP2 PUSH2 0xBD9 JUMP JUMPDEST SWAP1 POP SWAP2 SWAP1 POP JUMP JUMPDEST PUSH32 0x4E487B7100000000000000000000000000000000000000000000000000000000 PUSH1 0x0 MSTORE PUSH1 0x22 PUSH1 0x4 MSTORE PUSH1 0x24 PUSH1 0x0 REVERT JUMPDEST PUSH1 0x0 PUSH1 0x2 DUP3 DIV SWAP1 POP PUSH1 0x1 DUP3 AND DUP1 PUSH2 0xC63 JUMPI PUSH1 0x7F DUP3 AND SWAP2 POP JUMPDEST PUSH1 0x20 DUP3 LT DUP2 SUB PUSH2 0xC76 JUMPI PUSH2 0xC75 PUSH2 0xC1C JUMP JUMPDEST JUMPDEST POP SWAP2 SWAP1 POP JUMP JUMPDEST PUSH1 0x0 DUP2 SWAP1 POP DUP2 PUSH1 0x0 MSTORE PUSH1 0x20 PUSH1 0x0 KECCAK256 SWAP1 POP SWAP2 SWAP1 POP JUMP JUMPDEST PUSH1 0x0 PUSH1 0x20 PUSH1 0x1F DUP4 ADD DIV SWAP1 POP SWAP2 SWAP1 POP JUMP JUMPDEST PUSH1 0x0 DUP3 DUP3 SHL SWAP1 POP SWAP3 SWAP2 POP POP JUMP JUMPDEST PUSH1 0x0 PUSH1 0x8 DUP4 MUL PUSH2 0xCDE PUSH32 0xFFFFFFFFFFFFFFFFFFFFFFFFFFFFFFFFFFFFFFFFFFFFFFFFFFFFFFFFFFFFFFFF DUP3 PUSH2 0xCA1 JUMP JUMPDEST PUSH2 0xCE8 DUP7 DUP4 PUSH2 0xCA1 JUMP JUMPDEST SWAP6 POP DUP1 NOT DUP5 AND SWAP4 POP DUP1 DUP7 AND DUP5 OR SWAP3 POP POP POP SWAP4 SWAP3 POP POP POP JUMP JUMPDEST PUSH1 0x0 DUP2 SWAP1 POP SWAP2 SWAP1 POP JUMP JUMPDEST PUSH1 0x0 PUSH2 0xD25 PUSH2 0xD20 PUSH2 0xD1B DUP5 PUSH2 0x7D6 JUMP JUMPDEST PUSH2 0xD00 JUMP JUMPDEST PUSH2 0x7D6 JUMP JUMPDEST SWAP1 POP SWAP2 SWAP1 POP JUMP JUMPDEST PUSH1 0x0 DUP2 SWAP1 POP SWAP2 SWAP1 POP JUMP JUMPDEST PUSH2 0xD3F DUP4 PUSH2 0xD0A JUMP JUMPDEST PUSH2 0xD53 PUSH2 0xD4B DUP3 PUSH2 0xD2C JUMP JUMPDEST DUP5 DUP5 SLOAD PUSH2 0xCAE JUMP JUMPDEST DUP3 SSTORE POP POP POP POP JUMP JUMPDEST PUSH1 0x0 SWAP1 JUMP JUMPDEST PUSH2 0xD68 PUSH2 0xD5B JUMP JUMPDEST PUSH2 0xD73 DUP2 DUP5 DUP5 PUSH2 0xD36 JUMP JUMPDEST POP POP POP JUMP JUMPDEST JUMPDEST DUP2 DUP2 LT ISZERO PUSH2 0xD97 JUMPI PUSH2 0xD8C PUSH1 0x0 DUP3 PUSH2 0xD60 JUMP JUMPDEST PUSH1 0x1 DUP2 ADD SWAP1 POP PUSH2 0xD79 JUMP JUMPDEST POP POP JUMP JUMPDEST PUSH1 0x1F DUP3 GT ISZERO PUSH2 0xDDC JUMPI PUSH2 0xDAD DUP2 PUSH2 0xC7C JUMP JUMPDEST PUSH2 0xDB6 DUP5 PUSH2 0xC91 JUMP JUMPDEST DUP2 ADD PUSH1 0x20 DUP6 LT ISZERO PUSH2 0xDC5 JUMPI DUP2 SWAP1 POP JUMPDEST PUSH2 0xDD9 PUSH2 0xDD1 DUP6 PUSH2 0xC91 JUMP JUMPDEST DUP4 ADD DUP3 PUSH2 0xD78 JUMP JUMPDEST POP POP JUMPDEST POP POP POP JUMP JUMPDEST PUSH1 0x0 DUP3 DUP3 SHR SWAP1 POP SWAP3 SWAP2 POP POP JUMP JUMPDEST PUSH1 0x0 PUSH2 0xDFF PUSH1 0x0 NOT DUP5 PUSH1 0x8 MUL PUSH2 0xDE1 JUMP JUMPDEST NOT DUP1 DUP4 AND SWAP2 POP POP SWAP3 SWAP2 POP POP JUMP JUMPDEST PUSH1 0x0 PUSH2 0xE18 DUP4 DUP4 PUSH2 0xDEE JUMP JUMPDEST SWAP2 POP DUP3 PUSH1 0x2 MUL DUP3 OR SWAP1 POP SWAP3 SWAP2 POP POP JUMP JUMPDEST PUSH2 0xE31 DUP3 PUSH2 0x839 JUMP JUMPDEST PUSH8 0xFFFFFFFFFFFFFFFF DUP2 GT ISZERO PUSH2 0xE4A JUMPI PUSH2 0xE49 PUSH2 0x99F JUMP JUMPDEST JUMPDEST PUSH2 0xE54 DUP3 SLOAD PUSH2 0xC4B JUMP JUMPDEST PUSH2 0xE5F DUP3 DUP3 DUP6 PUSH2 0xD9B JUMP JUMPDEST PUSH1 0x0 PUSH1 0x20 SWAP1 POP PUSH1 0x1F DUP4 GT PUSH1 0x1 DUP2 EQ PUSH2 0xE92 JUMPI PUSH1 0x0 DUP5 ISZERO PUSH2 0xE80 JUMPI DUP3 DUP8 ADD MLOAD SWAP1 POP JUMPDEST PUSH2 0xE8A DUP6 DUP3 PUSH2 0xE0C JUMP JUMPDEST DUP7 SSTORE POP PUSH2 0xEF2 JUMP JUMPDEST PUSH1 0x1F NOT DUP5 AND PUSH2 0xEA0 DUP7 PUSH2 0xC7C JUMP JUMPDEST PUSH1 0x0 JUMPDEST DUP3 DUP2 LT ISZERO PUSH2 0xEC8 JUMPI DUP5 DUP10 ADD MLOAD DUP3 SSTORE PUSH1 0x1 DUP3 ADD SWAP2 POP PUSH1 0x20 DUP6 ADD SWAP5 POP PUSH1 0x20 DUP2 ADD SWAP1 POP PUSH2 0xEA3 JUMP JUMPDEST DUP7 DUP4 LT ISZERO PUSH2 0xEE5 JUMPI DUP5 DUP10 ADD MLOAD PUSH2 0xEE1 PUSH1 0x1F DUP10 AND DUP3 PUSH2 0xDEE JUMP JUMPDEST DUP4 SSTORE POP JUMPDEST PUSH1 0x1 PUSH1 0x2 DUP9 MUL ADD DUP9 SSTORE POP POP POP JUMPDEST POP POP POP POP POP POP JUMP JUMPDEST PUSH1 0x0 DUP2 SWAP1 POP SWAP3 SWAP2 POP POP JUMP JUMPDEST PUSH1 0x0 PUSH2 0xF10 DUP3 PUSH2 0x839 JUMP JUMPDEST PUSH2 0xF1A DUP2 DUP6 PUSH2 0xEFA JUMP JUMPDEST SWAP4 POP PUSH2 0xF2A DUP2 DUP6 PUSH1 0x20 DUP7 ADD PUSH2 0x855 JUMP JUMPDEST DUP1 DUP5 ADD SWAP2 POP POP SWAP3 SWAP2 POP POP JUMP JUMPDEST PUSH1 0x0 PUSH2 0xF42 DUP3 DUP5 PUSH2 0xF05 JUMP JUMPDEST SWAP2 POP DUP2 SWAP1 POP SWAP3 SWAP2 POP POP JUMP JUMPDEST PUSH1 0x0 DUP2 SWAP1 POP SWAP2 SWAP1 POP JUMP JUMPDEST PUSH1 0x0 PUSH2 0xF72 PUSH2 0xF6D PUSH2 0xF68 DUP5 PUSH2 0xF4D JUMP JUMPDEST PUSH2 0xD00 JUMP JUMPDEST PUSH2 0x7D6 JUMP JUMPDEST SWAP1 POP SWAP2 SWAP1 POP JUMP JUMPDEST PUSH2 0xF82 DUP2 PUSH2 0xF57 JUMP JUMPDEST DUP3 MSTORE POP POP JUMP JUMPDEST PUSH1 0x0 PUSH1 0x60 DUP3 ADD SWAP1 POP PUSH2 0xF9D PUSH1 0x0 DUP4 ADD DUP7 PUSH2 0xF79 JUMP JUMPDEST DUP2 DUP2 SUB PUSH1 0x20 DUP4 ADD MSTORE PUSH2 0xFAF DUP2 DUP6 PUSH2 0x890 JUMP JUMPDEST SWAP1 POP PUSH2 0xFBE PUSH1 0x40 DUP4 ADD DUP5 PUSH2 0x925 JUMP JUMPDEST SWAP5 SWAP4 POP POP POP POP JUMP JUMPDEST PUSH32 0x436F6D706C65746520796F7572207461736B0000000000000000000000000000 PUSH1 0x0 DUP3 ADD MSTORE POP JUMP JUMPDEST PUSH1 0x0 PUSH2 0xFFC PUSH1 0x12 DUP4 PUSH2 0x844 JUMP JUMPDEST SWAP2 POP PUSH2 0x1007 DUP3 PUSH2 0xFC6 JUMP JUMPDEST PUSH1 0x20 DUP3 ADD SWAP1 POP SWAP2 SWAP1 POP JUMP JUMPDEST PUSH1 0x0 PUSH1 0x20 DUP3 ADD SWAP1 POP DUP2 DUP2 SUB PUSH1 0x0 DUP4 ADD MSTORE PUSH2 0x102B DUP2 PUSH2 0xFEF JUMP JUMPDEST SWAP1 POP SWAP2 SWAP1 POP JUMP JUMPDEST PUSH32 0x4E487B7100000000000000000000000000000000000000000000000000000000 PUSH1 0x0 MSTORE PUSH1 0x11 PUSH1 0x4 MSTORE PUSH1 0x24 PUSH1 0x0 REVERT JUMPDEST PUSH1 0x0 PUSH2 0x106C DUP3 PUSH2 0x7D6 JUMP JUMPDEST SWAP2 POP PUSH2 0x1077 DUP4 PUSH2 0x7D6 JUMP JUMPDEST SWAP3 POP DUP3 DUP3 ADD SWAP1 POP DUP1 DUP3 GT ISZERO PUSH2 0x108F JUMPI PUSH2 0x108E PUSH2 0x1032 JUMP JUMPDEST JUMPDEST SWAP3 SWAP2 POP POP JUMP INVALID LOG2 PUSH5 0x6970667358 0x22 SLT KECCAK256 0x1F 0xB0 0xD1 DUP2 SIGNEXTEND 0xDC PUSH30 0xEBADE6724E6829302A9D89064FA9B9824308C0362A3658E0CD64736F6C63 NUMBER STOP ADDMOD SGT STOP CALLER "
				},
				"gasEstimates": {
					"creation": {
						"codeDepositCost": "859800",
						"executionCost": "47268",
						"totalCost": "907068"
					},
					"external": {
						"createTask(string,string,address)": "infinite",
						"get(uint256)": "infinite",
						"updateTask(uint256)": "infinite",
						"users(uint256)": "infinite"
					},
					"internal": {
						"rewardUser(uint256)": "infinite"
					}
				},
				"methodIdentifiers": {
					"createTask(string,string,address)": "475a8645",
					"get(uint256)": "9507d39a",
					"updateTask(uint256)": "30140291",
					"users(uint256)": "365b98b2"
				}
			},
			"storageLayout": {
				"storage": [
					{
						"astId": 3,
						"contract": "simplestorage.sol:SimpleStorage",
						"label": "storedData",
						"offset": 0,
						"slot": "0",
						"type": "t_uint256"
					},
					{
						"astId": 7,
						"contract": "simplestorage.sol:SimpleStorage",
						"label": "owner",
						"offset": 0,
						"slot": "1",
						"type": "t_address"
					},
					{
						"astId": 10,
						"contract": "simplestorage.sol:SimpleStorage",
						"label": "reward",
						"offset": 0,
						"slot": "2",
						"type": "t_uint256"
					},
					{
						"astId": 25,
						"contract": "simplestorage.sol:SimpleStorage",
						"label": "users",
						"offset": 0,
						"slot": "3",
						"type": "t_array(t_struct(User)21_storage)dyn_storage"
					}
				],
				"types": {
					"t_address": {
						"encoding": "inplace",
						"label": "address",
						"numberOfBytes": "20"
					},
					"t_array(t_struct(User)21_storage)dyn_storage": {
						"base": "t_struct(User)21_storage",
						"encoding": "dynamic_array",
						"label": "struct SimpleStorage.User[]",
						"numberOfBytes": "32"
					},
					"t_bool": {
						"encoding": "inplace",
						"label": "bool",
						"numberOfBytes": "1"
					},
					"t_string_storage": {
						"encoding": "bytes",
						"label": "string",
						"numberOfBytes": "32"
					},
					"t_struct(User)21_storage": {
						"encoding": "inplace",
						"label": "struct SimpleStorage.User",
						"members": [
							{
								"astId": 12,
								"contract": "simplestorage.sol:SimpleStorage",
								"label": "title",
								"offset": 0,
								"slot": "0",
								"type": "t_string_storage"
							},
							{
								"astId": 14,
								"contract": "simplestorage.sol:SimpleStorage",
								"label": "balance",
								"offset": 0,
								"slot": "1",
								"type": "t_uint256"
							},
							{
								"astId": 16,
								"contract": "simplestorage.sol:SimpleStorage",
								"label": "deadline",
								"offset": 0,
								"slot": "2",
								"type": "t_string_storage"
							},
							{
								"astId": 18,
								"contract": "simplestorage.sol:SimpleStorage",
								"label": "ownerAddress",
								"offset": 0,
								"slot": "3",
								"type": "t_address"
							},
							{
								"astId": 20,
								"contract": "simplestorage.sol:SimpleStorage",
								"label": "isCompleted",
								"offset": 20,
								"slot": "3",
								"type": "t_bool"
							}
						],
						"numberOfBytes": "128"
					},
					"t_uint256": {
						"encoding": "inplace",
						"label": "uint256",
						"numberOfBytes": "32"
					}
				}
			},
			"userdoc": {
				"kind": "user",
				"methods": {},
				"version": 1
			}
		}
	}
}